{
	"data": {
		"bytecode": {
			"linkReferences": {},
			"object": "608060405234801561000f575f80fd5b506112318061001d5f395ff3fe608060405234801561000f575f80fd5b5060043610610055575f3560e01c80637cd55d7d14610059578063a87d942c14610089578063c2ed2b05146100a7578063ce61d6dc146100d9578063ef2d8700146100f5575b5f80fd5b610073600480360381019061006e9190610944565b610113565b6040516100809190610aa9565b60405180910390f35b610091610331565b60405161009e9190610ad8565b60405180910390f35b6100c160048036038101906100bc9190610b1b565b61033d565b6040516100d093929190610b9d565b60405180910390f35b6100f360048036038101906100ee9190610c03565b610417565b005b6100fd610609565b60405161010a9190610d65565b60405180910390f35b61011b6107c2565b60068260405161012b9190610dbf565b90815260200160405180910390205f9054906101000a900460ff16610185576040517f08c379a000000000000000000000000000000000000000000000000000000000815260040161017c90610e1f565b60405180910390fd5b61018d6107c2565b6101956107c2565b5f5b60038054905081101561032657600381815481106101b8576101b7610e3d565b5b905f5260205f2090600302016040518060600160405290815f820180546101de90610e97565b80601f016020809104026020016040519081016040528092919081815260200182805461020a90610e97565b80156102555780601f1061022c57610100808354040283529160200191610255565b820191905f5260205f20905b81548152906001019060200180831161023857829003601f168201915b50505050508152602001600182015f9054906101000a900473ffffffffffffffffffffffffffffffffffffffff1673ffffffffffffffffffffffffffffffffffffffff1673ffffffffffffffffffffffffffffffffffffffff1681526020016002820154815250509250846040516020016102d09190610dbf565b60405160208183030381529060405280519060200120835f01516040516020016102fa9190610dbf565b6040516020818303038152906040528051906020012003610319578291505b8080600101915050610197565b508192505050919050565b5f600380549050905090565b6003818154811061034c575f80fd5b905f5260205f2090600302015f91509050805f01805461036b90610e97565b80601f016020809104026020016040519081016040528092919081815260200182805461039790610e97565b80156103e25780601f106103b9576101008083540402835291602001916103e2565b820191905f5260205f20905b8154815290600101906020018083116103c557829003601f168201915b505050505090806001015f9054906101000a900473ffffffffffffffffffffffffffffffffffffffff16908060020154905083565b6006826040516104279190610dbf565b90815260200160405180910390205f9054906101000a900460ff1615610482576040517f08c379a000000000000000000000000000000000000000000000000000000000815260040161047990610f11565b60405180910390fd5b5f429050600360405180606001604052808581526020018473ffffffffffffffffffffffffffffffffffffffff16815260200183815250908060018154018082558091505060019003905f5260205f2090600302015f909190919091505f820151815f0190816104f291906110cc565b506020820151816001015f6101000a81548173ffffffffffffffffffffffffffffffffffffffff021916908373ffffffffffffffffffffffffffffffffffffffff1602179055506040820151816002015550505f600160038054905061055891906111c8565b90503360045f8381526020019081526020015f205f6101000a81548173ffffffffffffffffffffffffffffffffffffffff021916908373ffffffffffffffffffffffffffffffffffffffff1602179055508360055f8381526020019081526020015f2090816105c791906110cc565b507f459ae8331bb88990c990d1039f3fc1822789ce81874ba193d411b9dc92df07ca8484846040516105fb93929190610b9d565b60405180910390a150505050565b60605f60038054905067ffffffffffffffff81111561062b5761062a610820565b5b60405190808252806020026020018201604052801561066457816020015b6106516107c2565b8152602001906001900390816106495790505b5090505f5b6003805490508110156107ba576003818154811061068a57610689610e3d565b5b905f5260205f2090600302016040518060600160405290815f820180546106b090610e97565b80601f01602080910402602001604051908101604052809291908181526020018280546106dc90610e97565b80156107275780601f106106fe57610100808354040283529160200191610727565b820191905f5260205f20905b81548152906001019060200180831161070a57829003601f168201915b50505050508152602001600182015f9054906101000a900473ffffffffffffffffffffffffffffffffffffffff1673ffffffffffffffffffffffffffffffffffffffff1673ffffffffffffffffffffffffffffffffffffffff1681526020016002820154815250508282815181106107a2576107a1610e3d565b5b60200260200101819052508080600101915050610669565b508091505090565b6040518060600160405280606081526020015f73ffffffffffffffffffffffffffffffffffffffff1681526020015f81525090565b5f604051905090565b5f80fd5b5f80fd5b5f80fd5b5f80fd5b5f601f19601f8301169050919050565b7f4e487b71000000000000000000000000000000000000000000000000000000005f52604160045260245ffd5b61085682610810565b810181811067ffffffffffffffff8211171561087557610874610820565b5b80604052505050565b5f6108876107f7565b9050610893828261084d565b919050565b5f67ffffffffffffffff8211156108b2576108b1610820565b5b6108bb82610810565b9050602081019050919050565b828183375f83830152505050565b5f6108e86108e384610898565b61087e565b9050828152602081018484840111156109045761090361080c565b5b61090f8482856108c8565b509392505050565b5f82601f83011261092b5761092a610808565b5b813561093b8482602086016108d6565b91505092915050565b5f6020828403121561095957610958610800565b5b5f82013567ffffffffffffffff81111561097657610975610804565b5b61098284828501610917565b91505092915050565b5f81519050919050565b5f82825260208201905092915050565b5f5b838110156109c25780820151818401526020810190506109a7565b5f8484015250505050565b5f6109d78261098b565b6109e18185610995565b93506109f18185602086016109a5565b6109fa81610810565b840191505092915050565b5f73ffffffffffffffffffffffffffffffffffffffff82169050919050565b5f610a2e82610a05565b9050919050565b610a3e81610a24565b82525050565b5f819050919050565b610a5681610a44565b82525050565b5f606083015f8301518482035f860152610a7682826109cd565b9150506020830151610a8b6020860182610a35565b506040830151610a9e6040860182610a4d565b508091505092915050565b5f6020820190508181035f830152610ac18184610a5c565b905092915050565b610ad281610a44565b82525050565b5f602082019050610aeb5f830184610ac9565b92915050565b610afa81610a44565b8114610b04575f80fd5b50565b5f81359050610b1581610af1565b92915050565b5f60208284031215610b3057610b2f610800565b5b5f610b3d84828501610b07565b91505092915050565b5f82825260208201905092915050565b5f610b608261098b565b610b6a8185610b46565b9350610b7a8185602086016109a5565b610b8381610810565b840191505092915050565b610b9781610a24565b82525050565b5f6060820190508181035f830152610bb58186610b56565b9050610bc46020830185610b8e565b610bd16040830184610ac9565b949350505050565b610be281610a24565b8114610bec575f80fd5b50565b5f81359050610bfd81610bd9565b92915050565b5f8060408385031215610c1957610c18610800565b5b5f83013567ffffffffffffffff811115610c3657610c35610804565b5b610c4285828601610917565b9250506020610c5385828601610bef565b9150509250929050565b5f81519050919050565b5f82825260208201905092915050565b5f819050602082019050919050565b5f606083015f8301518482035f860152610ca082826109cd565b9150506020830151610cb56020860182610a35565b506040830151610cc86040860182610a4d565b508091505092915050565b5f610cde8383610c86565b905092915050565b5f602082019050919050565b5f610cfc82610c5d565b610d068185610c67565b935083602082028501610d1885610c77565b805f5b85811015610d535784840389528151610d348582610cd3565b9450610d3f83610ce6565b925060208a01995050600181019050610d1b565b50829750879550505050505092915050565b5f6020820190508181035f830152610d7d8184610cf2565b905092915050565b5f81905092915050565b5f610d998261098b565b610da38185610d85565b9350610db38185602086016109a5565b80840191505092915050565b5f610dca8284610d8f565b915081905092915050565b7f46616c73652048617368000000000000000000000000000000000000000000005f82015250565b5f610e09600a83610b46565b9150610e1482610dd5565b602082019050919050565b5f6020820190508181035f830152610e3681610dfd565b9050919050565b7f4e487b71000000000000000000000000000000000000000000000000000000005f52603260045260245ffd5b7f4e487b71000000000000000000000000000000000000000000000000000000005f52602260045260245ffd5b5f6002820490506001821680610eae57607f821691505b602082108103610ec157610ec0610e6a565b5b50919050565b7f46696c6520616c72656164792073746f726564000000000000000000000000005f82015250565b5f610efb601383610b46565b9150610f0682610ec7565b602082019050919050565b5f6020820190508181035f830152610f2881610eef565b9050919050565b5f819050815f5260205f209050919050565b5f6020601f8301049050919050565b5f82821b905092915050565b5f60088302610f8b7fffffffffffffffffffffffffffffffffffffffffffffffffffffffffffffffff82610f50565b610f958683610f50565b95508019841693508086168417925050509392505050565b5f819050919050565b5f610fd0610fcb610fc684610a44565b610fad565b610a44565b9050919050565b5f819050919050565b610fe983610fb6565b610ffd610ff582610fd7565b848454610f5c565b825550505050565b5f90565b611011611005565b61101c818484610fe0565b505050565b5b8181101561103f576110345f82611009565b600181019050611022565b5050565b601f8211156110845761105581610f2f565b61105e84610f41565b8101602085101561106d578190505b61108161107985610f41565b830182611021565b50505b505050565b5f82821c905092915050565b5f6110a45f1984600802611089565b1980831691505092915050565b5f6110bc8383611095565b9150826002028217905092915050565b6110d58261098b565b67ffffffffffffffff8111156110ee576110ed610820565b5b6110f88254610e97565b611103828285611043565b5f60209050601f831160018114611134575f8415611122578287015190505b61112c85826110b1565b865550611193565b601f19841661114286610f2f565b5f5b8281101561116957848901518255600182019150602085019450602081019050611144565b868310156111865784890151611182601f891682611095565b8355505b6001600288020188555050505b505050505050565b7f4e487b71000000000000000000000000000000000000000000000000000000005f52601160045260245ffd5b5f6111d282610a44565b91506111dd83610a44565b92508282039050818111156111f5576111f461119b565b5b9291505056fea26469706673582212205defb67b43acd566132498f2c3a97698a3c2c86504777b6db3a901673feac00864736f6c63430008160033",
			"opcodes": "PUSH1 0x80 PUSH1 0x40 MSTORE CALLVALUE DUP1 ISZERO PUSH2 0xF JUMPI PUSH0 DUP1 REVERT JUMPDEST POP PUSH2 0x1231 DUP1 PUSH2 0x1D PUSH0 CODECOPY PUSH0 RETURN INVALID PUSH1 0x80 PUSH1 0x40 MSTORE CALLVALUE DUP1 ISZERO PUSH2 0xF JUMPI PUSH0 DUP1 REVERT JUMPDEST POP PUSH1 0x4 CALLDATASIZE LT PUSH2 0x55 JUMPI PUSH0 CALLDATALOAD PUSH1 0xE0 SHR DUP1 PUSH4 0x7CD55D7D EQ PUSH2 0x59 JUMPI DUP1 PUSH4 0xA87D942C EQ PUSH2 0x89 JUMPI DUP1 PUSH4 0xC2ED2B05 EQ PUSH2 0xA7 JUMPI DUP1 PUSH4 0xCE61D6DC EQ PUSH2 0xD9 JUMPI DUP1 PUSH4 0xEF2D8700 EQ PUSH2 0xF5 JUMPI JUMPDEST PUSH0 DUP1 REVERT JUMPDEST PUSH2 0x73 PUSH1 0x4 DUP1 CALLDATASIZE SUB DUP2 ADD SWAP1 PUSH2 0x6E SWAP2 SWAP1 PUSH2 0x944 JUMP JUMPDEST PUSH2 0x113 JUMP JUMPDEST PUSH1 0x40 MLOAD PUSH2 0x80 SWAP2 SWAP1 PUSH2 0xAA9 JUMP JUMPDEST PUSH1 0x40 MLOAD DUP1 SWAP2 SUB SWAP1 RETURN JUMPDEST PUSH2 0x91 PUSH2 0x331 JUMP JUMPDEST PUSH1 0x40 MLOAD PUSH2 0x9E SWAP2 SWAP1 PUSH2 0xAD8 JUMP JUMPDEST PUSH1 0x40 MLOAD DUP1 SWAP2 SUB SWAP1 RETURN JUMPDEST PUSH2 0xC1 PUSH1 0x4 DUP1 CALLDATASIZE SUB DUP2 ADD SWAP1 PUSH2 0xBC SWAP2 SWAP1 PUSH2 0xB1B JUMP JUMPDEST PUSH2 0x33D JUMP JUMPDEST PUSH1 0x40 MLOAD PUSH2 0xD0 SWAP4 SWAP3 SWAP2 SWAP1 PUSH2 0xB9D JUMP JUMPDEST PUSH1 0x40 MLOAD DUP1 SWAP2 SUB SWAP1 RETURN JUMPDEST PUSH2 0xF3 PUSH1 0x4 DUP1 CALLDATASIZE SUB DUP2 ADD SWAP1 PUSH2 0xEE SWAP2 SWAP1 PUSH2 0xC03 JUMP JUMPDEST PUSH2 0x417 JUMP JUMPDEST STOP JUMPDEST PUSH2 0xFD PUSH2 0x609 JUMP JUMPDEST PUSH1 0x40 MLOAD PUSH2 0x10A SWAP2 SWAP1 PUSH2 0xD65 JUMP JUMPDEST PUSH1 0x40 MLOAD DUP1 SWAP2 SUB SWAP1 RETURN JUMPDEST PUSH2 0x11B PUSH2 0x7C2 JUMP JUMPDEST PUSH1 0x6 DUP3 PUSH1 0x40 MLOAD PUSH2 0x12B SWAP2 SWAP1 PUSH2 0xDBF JUMP JUMPDEST SWAP1 DUP2 MSTORE PUSH1 0x20 ADD PUSH1 0x40 MLOAD DUP1 SWAP2 SUB SWAP1 KECCAK256 PUSH0 SWAP1 SLOAD SWAP1 PUSH2 0x100 EXP SWAP1 DIV PUSH1 0xFF AND PUSH2 0x185 JUMPI PUSH1 0x40 MLOAD PUSH32 0x8C379A000000000000000000000000000000000000000000000000000000000 DUP2 MSTORE PUSH1 0x4 ADD PUSH2 0x17C SWAP1 PUSH2 0xE1F JUMP JUMPDEST PUSH1 0x40 MLOAD DUP1 SWAP2 SUB SWAP1 REVERT JUMPDEST PUSH2 0x18D PUSH2 0x7C2 JUMP JUMPDEST PUSH2 0x195 PUSH2 0x7C2 JUMP JUMPDEST PUSH0 JUMPDEST PUSH1 0x3 DUP1 SLOAD SWAP1 POP DUP2 LT ISZERO PUSH2 0x326 JUMPI PUSH1 0x3 DUP2 DUP2 SLOAD DUP2 LT PUSH2 0x1B8 JUMPI PUSH2 0x1B7 PUSH2 0xE3D JUMP JUMPDEST JUMPDEST SWAP1 PUSH0 MSTORE PUSH1 0x20 PUSH0 KECCAK256 SWAP1 PUSH1 0x3 MUL ADD PUSH1 0x40 MLOAD DUP1 PUSH1 0x60 ADD PUSH1 0x40 MSTORE SWAP1 DUP2 PUSH0 DUP3 ADD DUP1 SLOAD PUSH2 0x1DE SWAP1 PUSH2 0xE97 JUMP JUMPDEST DUP1 PUSH1 0x1F ADD PUSH1 0x20 DUP1 SWAP2 DIV MUL PUSH1 0x20 ADD PUSH1 0x40 MLOAD SWAP1 DUP2 ADD PUSH1 0x40 MSTORE DUP1 SWAP3 SWAP2 SWAP1 DUP2 DUP2 MSTORE PUSH1 0x20 ADD DUP3 DUP1 SLOAD PUSH2 0x20A SWAP1 PUSH2 0xE97 JUMP JUMPDEST DUP1 ISZERO PUSH2 0x255 JUMPI DUP1 PUSH1 0x1F LT PUSH2 0x22C JUMPI PUSH2 0x100 DUP1 DUP4 SLOAD DIV MUL DUP4 MSTORE SWAP2 PUSH1 0x20 ADD SWAP2 PUSH2 0x255 JUMP JUMPDEST DUP3 ADD SWAP2 SWAP1 PUSH0 MSTORE PUSH1 0x20 PUSH0 KECCAK256 SWAP1 JUMPDEST DUP2 SLOAD DUP2 MSTORE SWAP1 PUSH1 0x1 ADD SWAP1 PUSH1 0x20 ADD DUP1 DUP4 GT PUSH2 0x238 JUMPI DUP3 SWAP1 SUB PUSH1 0x1F AND DUP3 ADD SWAP2 JUMPDEST POP POP POP POP POP DUP2 MSTORE PUSH1 0x20 ADD PUSH1 0x1 DUP3 ADD PUSH0 SWAP1 SLOAD SWAP1 PUSH2 0x100 EXP SWAP1 DIV PUSH20 0xFFFFFFFFFFFFFFFFFFFFFFFFFFFFFFFFFFFFFFFF AND PUSH20 0xFFFFFFFFFFFFFFFFFFFFFFFFFFFFFFFFFFFFFFFF AND PUSH20 0xFFFFFFFFFFFFFFFFFFFFFFFFFFFFFFFFFFFFFFFF AND DUP2 MSTORE PUSH1 0x20 ADD PUSH1 0x2 DUP3 ADD SLOAD DUP2 MSTORE POP POP SWAP3 POP DUP5 PUSH1 0x40 MLOAD PUSH1 0x20 ADD PUSH2 0x2D0 SWAP2 SWAP1 PUSH2 0xDBF JUMP JUMPDEST PUSH1 0x40 MLOAD PUSH1 0x20 DUP2 DUP4 SUB SUB DUP2 MSTORE SWAP1 PUSH1 0x40 MSTORE DUP1 MLOAD SWAP1 PUSH1 0x20 ADD KECCAK256 DUP4 PUSH0 ADD MLOAD PUSH1 0x40 MLOAD PUSH1 0x20 ADD PUSH2 0x2FA SWAP2 SWAP1 PUSH2 0xDBF JUMP JUMPDEST PUSH1 0x40 MLOAD PUSH1 0x20 DUP2 DUP4 SUB SUB DUP2 MSTORE SWAP1 PUSH1 0x40 MSTORE DUP1 MLOAD SWAP1 PUSH1 0x20 ADD KECCAK256 SUB PUSH2 0x319 JUMPI DUP3 SWAP2 POP JUMPDEST DUP1 DUP1 PUSH1 0x1 ADD SWAP2 POP POP PUSH2 0x197 JUMP JUMPDEST POP DUP2 SWAP3 POP POP POP SWAP2 SWAP1 POP JUMP JUMPDEST PUSH0 PUSH1 0x3 DUP1 SLOAD SWAP1 POP SWAP1 POP SWAP1 JUMP JUMPDEST PUSH1 0x3 DUP2 DUP2 SLOAD DUP2 LT PUSH2 0x34C JUMPI PUSH0 DUP1 REVERT JUMPDEST SWAP1 PUSH0 MSTORE PUSH1 0x20 PUSH0 KECCAK256 SWAP1 PUSH1 0x3 MUL ADD PUSH0 SWAP2 POP SWAP1 POP DUP1 PUSH0 ADD DUP1 SLOAD PUSH2 0x36B SWAP1 PUSH2 0xE97 JUMP JUMPDEST DUP1 PUSH1 0x1F ADD PUSH1 0x20 DUP1 SWAP2 DIV MUL PUSH1 0x20 ADD PUSH1 0x40 MLOAD SWAP1 DUP2 ADD PUSH1 0x40 MSTORE DUP1 SWAP3 SWAP2 SWAP1 DUP2 DUP2 MSTORE PUSH1 0x20 ADD DUP3 DUP1 SLOAD PUSH2 0x397 SWAP1 PUSH2 0xE97 JUMP JUMPDEST DUP1 ISZERO PUSH2 0x3E2 JUMPI DUP1 PUSH1 0x1F LT PUSH2 0x3B9 JUMPI PUSH2 0x100 DUP1 DUP4 SLOAD DIV MUL DUP4 MSTORE SWAP2 PUSH1 0x20 ADD SWAP2 PUSH2 0x3E2 JUMP JUMPDEST DUP3 ADD SWAP2 SWAP1 PUSH0 MSTORE PUSH1 0x20 PUSH0 KECCAK256 SWAP1 JUMPDEST DUP2 SLOAD DUP2 MSTORE SWAP1 PUSH1 0x1 ADD SWAP1 PUSH1 0x20 ADD DUP1 DUP4 GT PUSH2 0x3C5 JUMPI DUP3 SWAP1 SUB PUSH1 0x1F AND DUP3 ADD SWAP2 JUMPDEST POP POP POP POP POP SWAP1 DUP1 PUSH1 0x1 ADD PUSH0 SWAP1 SLOAD SWAP1 PUSH2 0x100 EXP SWAP1 DIV PUSH20 0xFFFFFFFFFFFFFFFFFFFFFFFFFFFFFFFFFFFFFFFF AND SWAP1 DUP1 PUSH1 0x2 ADD SLOAD SWAP1 POP DUP4 JUMP JUMPDEST PUSH1 0x6 DUP3 PUSH1 0x40 MLOAD PUSH2 0x427 SWAP2 SWAP1 PUSH2 0xDBF JUMP JUMPDEST SWAP1 DUP2 MSTORE PUSH1 0x20 ADD PUSH1 0x40 MLOAD DUP1 SWAP2 SUB SWAP1 KECCAK256 PUSH0 SWAP1 SLOAD SWAP1 PUSH2 0x100 EXP SWAP1 DIV PUSH1 0xFF AND ISZERO PUSH2 0x482 JUMPI PUSH1 0x40 MLOAD PUSH32 0x8C379A000000000000000000000000000000000000000000000000000000000 DUP2 MSTORE PUSH1 0x4 ADD PUSH2 0x479 SWAP1 PUSH2 0xF11 JUMP JUMPDEST PUSH1 0x40 MLOAD DUP1 SWAP2 SUB SWAP1 REVERT JUMPDEST PUSH0 TIMESTAMP SWAP1 POP PUSH1 0x3 PUSH1 0x40 MLOAD DUP1 PUSH1 0x60 ADD PUSH1 0x40 MSTORE DUP1 DUP6 DUP2 MSTORE PUSH1 0x20 ADD DUP5 PUSH20 0xFFFFFFFFFFFFFFFFFFFFFFFFFFFFFFFFFFFFFFFF AND DUP2 MSTORE PUSH1 0x20 ADD DUP4 DUP2 MSTORE POP SWAP1 DUP1 PUSH1 0x1 DUP2 SLOAD ADD DUP1 DUP3 SSTORE DUP1 SWAP2 POP POP PUSH1 0x1 SWAP1 SUB SWAP1 PUSH0 MSTORE PUSH1 0x20 PUSH0 KECCAK256 SWAP1 PUSH1 0x3 MUL ADD PUSH0 SWAP1 SWAP2 SWAP1 SWAP2 SWAP1 SWAP2 POP PUSH0 DUP3 ADD MLOAD DUP2 PUSH0 ADD SWAP1 DUP2 PUSH2 0x4F2 SWAP2 SWAP1 PUSH2 0x10CC JUMP JUMPDEST POP PUSH1 0x20 DUP3 ADD MLOAD DUP2 PUSH1 0x1 ADD PUSH0 PUSH2 0x100 EXP DUP2 SLOAD DUP2 PUSH20 0xFFFFFFFFFFFFFFFFFFFFFFFFFFFFFFFFFFFFFFFF MUL NOT AND SWAP1 DUP4 PUSH20 0xFFFFFFFFFFFFFFFFFFFFFFFFFFFFFFFFFFFFFFFF AND MUL OR SWAP1 SSTORE POP PUSH1 0x40 DUP3 ADD MLOAD DUP2 PUSH1 0x2 ADD SSTORE POP POP PUSH0 PUSH1 0x1 PUSH1 0x3 DUP1 SLOAD SWAP1 POP PUSH2 0x558 SWAP2 SWAP1 PUSH2 0x11C8 JUMP JUMPDEST SWAP1 POP CALLER PUSH1 0x4 PUSH0 DUP4 DUP2 MSTORE PUSH1 0x20 ADD SWAP1 DUP2 MSTORE PUSH1 0x20 ADD PUSH0 KECCAK256 PUSH0 PUSH2 0x100 EXP DUP2 SLOAD DUP2 PUSH20 0xFFFFFFFFFFFFFFFFFFFFFFFFFFFFFFFFFFFFFFFF MUL NOT AND SWAP1 DUP4 PUSH20 0xFFFFFFFFFFFFFFFFFFFFFFFFFFFFFFFFFFFFFFFF AND MUL OR SWAP1 SSTORE POP DUP4 PUSH1 0x5 PUSH0 DUP4 DUP2 MSTORE PUSH1 0x20 ADD SWAP1 DUP2 MSTORE PUSH1 0x20 ADD PUSH0 KECCAK256 SWAP1 DUP2 PUSH2 0x5C7 SWAP2 SWAP1 PUSH2 0x10CC JUMP JUMPDEST POP PUSH32 0x459AE8331BB88990C990D1039F3FC1822789CE81874BA193D411B9DC92DF07CA DUP5 DUP5 DUP5 PUSH1 0x40 MLOAD PUSH2 0x5FB SWAP4 SWAP3 SWAP2 SWAP1 PUSH2 0xB9D JUMP JUMPDEST PUSH1 0x40 MLOAD DUP1 SWAP2 SUB SWAP1 LOG1 POP POP POP POP JUMP JUMPDEST PUSH1 0x60 PUSH0 PUSH1 0x3 DUP1 SLOAD SWAP1 POP PUSH8 0xFFFFFFFFFFFFFFFF DUP2 GT ISZERO PUSH2 0x62B JUMPI PUSH2 0x62A PUSH2 0x820 JUMP JUMPDEST JUMPDEST PUSH1 0x40 MLOAD SWAP1 DUP1 DUP3 MSTORE DUP1 PUSH1 0x20 MUL PUSH1 0x20 ADD DUP3 ADD PUSH1 0x40 MSTORE DUP1 ISZERO PUSH2 0x664 JUMPI DUP2 PUSH1 0x20 ADD JUMPDEST PUSH2 0x651 PUSH2 0x7C2 JUMP JUMPDEST DUP2 MSTORE PUSH1 0x20 ADD SWAP1 PUSH1 0x1 SWAP1 SUB SWAP1 DUP2 PUSH2 0x649 JUMPI SWAP1 POP JUMPDEST POP SWAP1 POP PUSH0 JUMPDEST PUSH1 0x3 DUP1 SLOAD SWAP1 POP DUP2 LT ISZERO PUSH2 0x7BA JUMPI PUSH1 0x3 DUP2 DUP2 SLOAD DUP2 LT PUSH2 0x68A JUMPI PUSH2 0x689 PUSH2 0xE3D JUMP JUMPDEST JUMPDEST SWAP1 PUSH0 MSTORE PUSH1 0x20 PUSH0 KECCAK256 SWAP1 PUSH1 0x3 MUL ADD PUSH1 0x40 MLOAD DUP1 PUSH1 0x60 ADD PUSH1 0x40 MSTORE SWAP1 DUP2 PUSH0 DUP3 ADD DUP1 SLOAD PUSH2 0x6B0 SWAP1 PUSH2 0xE97 JUMP JUMPDEST DUP1 PUSH1 0x1F ADD PUSH1 0x20 DUP1 SWAP2 DIV MUL PUSH1 0x20 ADD PUSH1 0x40 MLOAD SWAP1 DUP2 ADD PUSH1 0x40 MSTORE DUP1 SWAP3 SWAP2 SWAP1 DUP2 DUP2 MSTORE PUSH1 0x20 ADD DUP3 DUP1 SLOAD PUSH2 0x6DC SWAP1 PUSH2 0xE97 JUMP JUMPDEST DUP1 ISZERO PUSH2 0x727 JUMPI DUP1 PUSH1 0x1F LT PUSH2 0x6FE JUMPI PUSH2 0x100 DUP1 DUP4 SLOAD DIV MUL DUP4 MSTORE SWAP2 PUSH1 0x20 ADD SWAP2 PUSH2 0x727 JUMP JUMPDEST DUP3 ADD SWAP2 SWAP1 PUSH0 MSTORE PUSH1 0x20 PUSH0 KECCAK256 SWAP1 JUMPDEST DUP2 SLOAD DUP2 MSTORE SWAP1 PUSH1 0x1 ADD SWAP1 PUSH1 0x20 ADD DUP1 DUP4 GT PUSH2 0x70A JUMPI DUP3 SWAP1 SUB PUSH1 0x1F AND DUP3 ADD SWAP2 JUMPDEST POP POP POP POP POP DUP2 MSTORE PUSH1 0x20 ADD PUSH1 0x1 DUP3 ADD PUSH0 SWAP1 SLOAD SWAP1 PUSH2 0x100 EXP SWAP1 DIV PUSH20 0xFFFFFFFFFFFFFFFFFFFFFFFFFFFFFFFFFFFFFFFF AND PUSH20 0xFFFFFFFFFFFFFFFFFFFFFFFFFFFFFFFFFFFFFFFF AND PUSH20 0xFFFFFFFFFFFFFFFFFFFFFFFFFFFFFFFFFFFFFFFF AND DUP2 MSTORE PUSH1 0x20 ADD PUSH1 0x2 DUP3 ADD SLOAD DUP2 MSTORE POP POP DUP3 DUP3 DUP2 MLOAD DUP2 LT PUSH2 0x7A2 JUMPI PUSH2 0x7A1 PUSH2 0xE3D JUMP JUMPDEST JUMPDEST PUSH1 0x20 MUL PUSH1 0x20 ADD ADD DUP2 SWAP1 MSTORE POP DUP1 DUP1 PUSH1 0x1 ADD SWAP2 POP POP PUSH2 0x669 JUMP JUMPDEST POP DUP1 SWAP2 POP POP SWAP1 JUMP JUMPDEST PUSH1 0x40 MLOAD DUP1 PUSH1 0x60 ADD PUSH1 0x40 MSTORE DUP1 PUSH1 0x60 DUP2 MSTORE PUSH1 0x20 ADD PUSH0 PUSH20 0xFFFFFFFFFFFFFFFFFFFFFFFFFFFFFFFFFFFFFFFF AND DUP2 MSTORE PUSH1 0x20 ADD PUSH0 DUP2 MSTORE POP SWAP1 JUMP JUMPDEST PUSH0 PUSH1 0x40 MLOAD SWAP1 POP SWAP1 JUMP JUMPDEST PUSH0 DUP1 REVERT JUMPDEST PUSH0 DUP1 REVERT JUMPDEST PUSH0 DUP1 REVERT JUMPDEST PUSH0 DUP1 REVERT JUMPDEST PUSH0 PUSH1 0x1F NOT PUSH1 0x1F DUP4 ADD AND SWAP1 POP SWAP2 SWAP1 POP JUMP JUMPDEST PUSH32 0x4E487B7100000000000000000000000000000000000000000000000000000000 PUSH0 MSTORE PUSH1 0x41 PUSH1 0x4 MSTORE PUSH1 0x24 PUSH0 REVERT JUMPDEST PUSH2 0x856 DUP3 PUSH2 0x810 JUMP JUMPDEST DUP2 ADD DUP2 DUP2 LT PUSH8 0xFFFFFFFFFFFFFFFF DUP3 GT OR ISZERO PUSH2 0x875 JUMPI PUSH2 0x874 PUSH2 0x820 JUMP JUMPDEST JUMPDEST DUP1 PUSH1 0x40 MSTORE POP POP POP JUMP JUMPDEST PUSH0 PUSH2 0x887 PUSH2 0x7F7 JUMP JUMPDEST SWAP1 POP PUSH2 0x893 DUP3 DUP3 PUSH2 0x84D JUMP JUMPDEST SWAP2 SWAP1 POP JUMP JUMPDEST PUSH0 PUSH8 0xFFFFFFFFFFFFFFFF DUP3 GT ISZERO PUSH2 0x8B2 JUMPI PUSH2 0x8B1 PUSH2 0x820 JUMP JUMPDEST JUMPDEST PUSH2 0x8BB DUP3 PUSH2 0x810 JUMP JUMPDEST SWAP1 POP PUSH1 0x20 DUP2 ADD SWAP1 POP SWAP2 SWAP1 POP JUMP JUMPDEST DUP3 DUP2 DUP4 CALLDATACOPY PUSH0 DUP4 DUP4 ADD MSTORE POP POP POP JUMP JUMPDEST PUSH0 PUSH2 0x8E8 PUSH2 0x8E3 DUP5 PUSH2 0x898 JUMP JUMPDEST PUSH2 0x87E JUMP JUMPDEST SWAP1 POP DUP3 DUP2 MSTORE PUSH1 0x20 DUP2 ADD DUP5 DUP5 DUP5 ADD GT ISZERO PUSH2 0x904 JUMPI PUSH2 0x903 PUSH2 0x80C JUMP JUMPDEST JUMPDEST PUSH2 0x90F DUP5 DUP3 DUP6 PUSH2 0x8C8 JUMP JUMPDEST POP SWAP4 SWAP3 POP POP POP JUMP JUMPDEST PUSH0 DUP3 PUSH1 0x1F DUP4 ADD SLT PUSH2 0x92B JUMPI PUSH2 0x92A PUSH2 0x808 JUMP JUMPDEST JUMPDEST DUP2 CALLDATALOAD PUSH2 0x93B DUP5 DUP3 PUSH1 0x20 DUP7 ADD PUSH2 0x8D6 JUMP JUMPDEST SWAP2 POP POP SWAP3 SWAP2 POP POP JUMP JUMPDEST PUSH0 PUSH1 0x20 DUP3 DUP5 SUB SLT ISZERO PUSH2 0x959 JUMPI PUSH2 0x958 PUSH2 0x800 JUMP JUMPDEST JUMPDEST PUSH0 DUP3 ADD CALLDATALOAD PUSH8 0xFFFFFFFFFFFFFFFF DUP2 GT ISZERO PUSH2 0x976 JUMPI PUSH2 0x975 PUSH2 0x804 JUMP JUMPDEST JUMPDEST PUSH2 0x982 DUP5 DUP3 DUP6 ADD PUSH2 0x917 JUMP JUMPDEST SWAP2 POP POP SWAP3 SWAP2 POP POP JUMP JUMPDEST PUSH0 DUP2 MLOAD SWAP1 POP SWAP2 SWAP1 POP JUMP JUMPDEST PUSH0 DUP3 DUP3 MSTORE PUSH1 0x20 DUP3 ADD SWAP1 POP SWAP3 SWAP2 POP POP JUMP JUMPDEST PUSH0 JUMPDEST DUP4 DUP2 LT ISZERO PUSH2 0x9C2 JUMPI DUP1 DUP3 ADD MLOAD DUP2 DUP5 ADD MSTORE PUSH1 0x20 DUP2 ADD SWAP1 POP PUSH2 0x9A7 JUMP JUMPDEST PUSH0 DUP5 DUP5 ADD MSTORE POP POP POP POP JUMP JUMPDEST PUSH0 PUSH2 0x9D7 DUP3 PUSH2 0x98B JUMP JUMPDEST PUSH2 0x9E1 DUP2 DUP6 PUSH2 0x995 JUMP JUMPDEST SWAP4 POP PUSH2 0x9F1 DUP2 DUP6 PUSH1 0x20 DUP7 ADD PUSH2 0x9A5 JUMP JUMPDEST PUSH2 0x9FA DUP2 PUSH2 0x810 JUMP JUMPDEST DUP5 ADD SWAP2 POP POP SWAP3 SWAP2 POP POP JUMP JUMPDEST PUSH0 PUSH20 0xFFFFFFFFFFFFFFFFFFFFFFFFFFFFFFFFFFFFFFFF DUP3 AND SWAP1 POP SWAP2 SWAP1 POP JUMP JUMPDEST PUSH0 PUSH2 0xA2E DUP3 PUSH2 0xA05 JUMP JUMPDEST SWAP1 POP SWAP2 SWAP1 POP JUMP JUMPDEST PUSH2 0xA3E DUP2 PUSH2 0xA24 JUMP JUMPDEST DUP3 MSTORE POP POP JUMP JUMPDEST PUSH0 DUP2 SWAP1 POP SWAP2 SWAP1 POP JUMP JUMPDEST PUSH2 0xA56 DUP2 PUSH2 0xA44 JUMP JUMPDEST DUP3 MSTORE POP POP JUMP JUMPDEST PUSH0 PUSH1 0x60 DUP4 ADD PUSH0 DUP4 ADD MLOAD DUP5 DUP3 SUB PUSH0 DUP7 ADD MSTORE PUSH2 0xA76 DUP3 DUP3 PUSH2 0x9CD JUMP JUMPDEST SWAP2 POP POP PUSH1 0x20 DUP4 ADD MLOAD PUSH2 0xA8B PUSH1 0x20 DUP7 ADD DUP3 PUSH2 0xA35 JUMP JUMPDEST POP PUSH1 0x40 DUP4 ADD MLOAD PUSH2 0xA9E PUSH1 0x40 DUP7 ADD DUP3 PUSH2 0xA4D JUMP JUMPDEST POP DUP1 SWAP2 POP POP SWAP3 SWAP2 POP POP JUMP JUMPDEST PUSH0 PUSH1 0x20 DUP3 ADD SWAP1 POP DUP2 DUP2 SUB PUSH0 DUP4 ADD MSTORE PUSH2 0xAC1 DUP2 DUP5 PUSH2 0xA5C JUMP JUMPDEST SWAP1 POP SWAP3 SWAP2 POP POP JUMP JUMPDEST PUSH2 0xAD2 DUP2 PUSH2 0xA44 JUMP JUMPDEST DUP3 MSTORE POP POP JUMP JUMPDEST PUSH0 PUSH1 0x20 DUP3 ADD SWAP1 POP PUSH2 0xAEB PUSH0 DUP4 ADD DUP5 PUSH2 0xAC9 JUMP JUMPDEST SWAP3 SWAP2 POP POP JUMP JUMPDEST PUSH2 0xAFA DUP2 PUSH2 0xA44 JUMP JUMPDEST DUP2 EQ PUSH2 0xB04 JUMPI PUSH0 DUP1 REVERT JUMPDEST POP JUMP JUMPDEST PUSH0 DUP2 CALLDATALOAD SWAP1 POP PUSH2 0xB15 DUP2 PUSH2 0xAF1 JUMP JUMPDEST SWAP3 SWAP2 POP POP JUMP JUMPDEST PUSH0 PUSH1 0x20 DUP3 DUP5 SUB SLT ISZERO PUSH2 0xB30 JUMPI PUSH2 0xB2F PUSH2 0x800 JUMP JUMPDEST JUMPDEST PUSH0 PUSH2 0xB3D DUP5 DUP3 DUP6 ADD PUSH2 0xB07 JUMP JUMPDEST SWAP2 POP POP SWAP3 SWAP2 POP POP JUMP JUMPDEST PUSH0 DUP3 DUP3 MSTORE PUSH1 0x20 DUP3 ADD SWAP1 POP SWAP3 SWAP2 POP POP JUMP JUMPDEST PUSH0 PUSH2 0xB60 DUP3 PUSH2 0x98B JUMP JUMPDEST PUSH2 0xB6A DUP2 DUP6 PUSH2 0xB46 JUMP JUMPDEST SWAP4 POP PUSH2 0xB7A DUP2 DUP6 PUSH1 0x20 DUP7 ADD PUSH2 0x9A5 JUMP JUMPDEST PUSH2 0xB83 DUP2 PUSH2 0x810 JUMP JUMPDEST DUP5 ADD SWAP2 POP POP SWAP3 SWAP2 POP POP JUMP JUMPDEST PUSH2 0xB97 DUP2 PUSH2 0xA24 JUMP JUMPDEST DUP3 MSTORE POP POP JUMP JUMPDEST PUSH0 PUSH1 0x60 DUP3 ADD SWAP1 POP DUP2 DUP2 SUB PUSH0 DUP4 ADD MSTORE PUSH2 0xBB5 DUP2 DUP7 PUSH2 0xB56 JUMP JUMPDEST SWAP1 POP PUSH2 0xBC4 PUSH1 0x20 DUP4 ADD DUP6 PUSH2 0xB8E JUMP JUMPDEST PUSH2 0xBD1 PUSH1 0x40 DUP4 ADD DUP5 PUSH2 0xAC9 JUMP JUMPDEST SWAP5 SWAP4 POP POP POP POP JUMP JUMPDEST PUSH2 0xBE2 DUP2 PUSH2 0xA24 JUMP JUMPDEST DUP2 EQ PUSH2 0xBEC JUMPI PUSH0 DUP1 REVERT JUMPDEST POP JUMP JUMPDEST PUSH0 DUP2 CALLDATALOAD SWAP1 POP PUSH2 0xBFD DUP2 PUSH2 0xBD9 JUMP JUMPDEST SWAP3 SWAP2 POP POP JUMP JUMPDEST PUSH0 DUP1 PUSH1 0x40 DUP4 DUP6 SUB SLT ISZERO PUSH2 0xC19 JUMPI PUSH2 0xC18 PUSH2 0x800 JUMP JUMPDEST JUMPDEST PUSH0 DUP4 ADD CALLDATALOAD PUSH8 0xFFFFFFFFFFFFFFFF DUP2 GT ISZERO PUSH2 0xC36 JUMPI PUSH2 0xC35 PUSH2 0x804 JUMP JUMPDEST JUMPDEST PUSH2 0xC42 DUP6 DUP3 DUP7 ADD PUSH2 0x917 JUMP JUMPDEST SWAP3 POP POP PUSH1 0x20 PUSH2 0xC53 DUP6 DUP3 DUP7 ADD PUSH2 0xBEF JUMP JUMPDEST SWAP2 POP POP SWAP3 POP SWAP3 SWAP1 POP JUMP JUMPDEST PUSH0 DUP2 MLOAD SWAP1 POP SWAP2 SWAP1 POP JUMP JUMPDEST PUSH0 DUP3 DUP3 MSTORE PUSH1 0x20 DUP3 ADD SWAP1 POP SWAP3 SWAP2 POP POP JUMP JUMPDEST PUSH0 DUP2 SWAP1 POP PUSH1 0x20 DUP3 ADD SWAP1 POP SWAP2 SWAP1 POP JUMP JUMPDEST PUSH0 PUSH1 0x60 DUP4 ADD PUSH0 DUP4 ADD MLOAD DUP5 DUP3 SUB PUSH0 DUP7 ADD MSTORE PUSH2 0xCA0 DUP3 DUP3 PUSH2 0x9CD JUMP JUMPDEST SWAP2 POP POP PUSH1 0x20 DUP4 ADD MLOAD PUSH2 0xCB5 PUSH1 0x20 DUP7 ADD DUP3 PUSH2 0xA35 JUMP JUMPDEST POP PUSH1 0x40 DUP4 ADD MLOAD PUSH2 0xCC8 PUSH1 0x40 DUP7 ADD DUP3 PUSH2 0xA4D JUMP JUMPDEST POP DUP1 SWAP2 POP POP SWAP3 SWAP2 POP POP JUMP JUMPDEST PUSH0 PUSH2 0xCDE DUP4 DUP4 PUSH2 0xC86 JUMP JUMPDEST SWAP1 POP SWAP3 SWAP2 POP POP JUMP JUMPDEST PUSH0 PUSH1 0x20 DUP3 ADD SWAP1 POP SWAP2 SWAP1 POP JUMP JUMPDEST PUSH0 PUSH2 0xCFC DUP3 PUSH2 0xC5D JUMP JUMPDEST PUSH2 0xD06 DUP2 DUP6 PUSH2 0xC67 JUMP JUMPDEST SWAP4 POP DUP4 PUSH1 0x20 DUP3 MUL DUP6 ADD PUSH2 0xD18 DUP6 PUSH2 0xC77 JUMP JUMPDEST DUP1 PUSH0 JUMPDEST DUP6 DUP2 LT ISZERO PUSH2 0xD53 JUMPI DUP5 DUP5 SUB DUP10 MSTORE DUP2 MLOAD PUSH2 0xD34 DUP6 DUP3 PUSH2 0xCD3 JUMP JUMPDEST SWAP5 POP PUSH2 0xD3F DUP4 PUSH2 0xCE6 JUMP JUMPDEST SWAP3 POP PUSH1 0x20 DUP11 ADD SWAP10 POP POP PUSH1 0x1 DUP2 ADD SWAP1 POP PUSH2 0xD1B JUMP JUMPDEST POP DUP3 SWAP8 POP DUP8 SWAP6 POP POP POP POP POP POP SWAP3 SWAP2 POP POP JUMP JUMPDEST PUSH0 PUSH1 0x20 DUP3 ADD SWAP1 POP DUP2 DUP2 SUB PUSH0 DUP4 ADD MSTORE PUSH2 0xD7D DUP2 DUP5 PUSH2 0xCF2 JUMP JUMPDEST SWAP1 POP SWAP3 SWAP2 POP POP JUMP JUMPDEST PUSH0 DUP2 SWAP1 POP SWAP3 SWAP2 POP POP JUMP JUMPDEST PUSH0 PUSH2 0xD99 DUP3 PUSH2 0x98B JUMP JUMPDEST PUSH2 0xDA3 DUP2 DUP6 PUSH2 0xD85 JUMP JUMPDEST SWAP4 POP PUSH2 0xDB3 DUP2 DUP6 PUSH1 0x20 DUP7 ADD PUSH2 0x9A5 JUMP JUMPDEST DUP1 DUP5 ADD SWAP2 POP POP SWAP3 SWAP2 POP POP JUMP JUMPDEST PUSH0 PUSH2 0xDCA DUP3 DUP5 PUSH2 0xD8F JUMP JUMPDEST SWAP2 POP DUP2 SWAP1 POP SWAP3 SWAP2 POP POP JUMP JUMPDEST PUSH32 0x46616C7365204861736800000000000000000000000000000000000000000000 PUSH0 DUP3 ADD MSTORE POP JUMP JUMPDEST PUSH0 PUSH2 0xE09 PUSH1 0xA DUP4 PUSH2 0xB46 JUMP JUMPDEST SWAP2 POP PUSH2 0xE14 DUP3 PUSH2 0xDD5 JUMP JUMPDEST PUSH1 0x20 DUP3 ADD SWAP1 POP SWAP2 SWAP1 POP JUMP JUMPDEST PUSH0 PUSH1 0x20 DUP3 ADD SWAP1 POP DUP2 DUP2 SUB PUSH0 DUP4 ADD MSTORE PUSH2 0xE36 DUP2 PUSH2 0xDFD JUMP JUMPDEST SWAP1 POP SWAP2 SWAP1 POP JUMP JUMPDEST PUSH32 0x4E487B7100000000000000000000000000000000000000000000000000000000 PUSH0 MSTORE PUSH1 0x32 PUSH1 0x4 MSTORE PUSH1 0x24 PUSH0 REVERT JUMPDEST PUSH32 0x4E487B7100000000000000000000000000000000000000000000000000000000 PUSH0 MSTORE PUSH1 0x22 PUSH1 0x4 MSTORE PUSH1 0x24 PUSH0 REVERT JUMPDEST PUSH0 PUSH1 0x2 DUP3 DIV SWAP1 POP PUSH1 0x1 DUP3 AND DUP1 PUSH2 0xEAE JUMPI PUSH1 0x7F DUP3 AND SWAP2 POP JUMPDEST PUSH1 0x20 DUP3 LT DUP2 SUB PUSH2 0xEC1 JUMPI PUSH2 0xEC0 PUSH2 0xE6A JUMP JUMPDEST JUMPDEST POP SWAP2 SWAP1 POP JUMP JUMPDEST PUSH32 0x46696C6520616C72656164792073746F72656400000000000000000000000000 PUSH0 DUP3 ADD MSTORE POP JUMP JUMPDEST PUSH0 PUSH2 0xEFB PUSH1 0x13 DUP4 PUSH2 0xB46 JUMP JUMPDEST SWAP2 POP PUSH2 0xF06 DUP3 PUSH2 0xEC7 JUMP JUMPDEST PUSH1 0x20 DUP3 ADD SWAP1 POP SWAP2 SWAP1 POP JUMP JUMPDEST PUSH0 PUSH1 0x20 DUP3 ADD SWAP1 POP DUP2 DUP2 SUB PUSH0 DUP4 ADD MSTORE PUSH2 0xF28 DUP2 PUSH2 0xEEF JUMP JUMPDEST SWAP1 POP SWAP2 SWAP1 POP JUMP JUMPDEST PUSH0 DUP2 SWAP1 POP DUP2 PUSH0 MSTORE PUSH1 0x20 PUSH0 KECCAK256 SWAP1 POP SWAP2 SWAP1 POP JUMP JUMPDEST PUSH0 PUSH1 0x20 PUSH1 0x1F DUP4 ADD DIV SWAP1 POP SWAP2 SWAP1 POP JUMP JUMPDEST PUSH0 DUP3 DUP3 SHL SWAP1 POP SWAP3 SWAP2 POP POP JUMP JUMPDEST PUSH0 PUSH1 0x8 DUP4 MUL PUSH2 0xF8B PUSH32 0xFFFFFFFFFFFFFFFFFFFFFFFFFFFFFFFFFFFFFFFFFFFFFFFFFFFFFFFFFFFFFFFF DUP3 PUSH2 0xF50 JUMP JUMPDEST PUSH2 0xF95 DUP7 DUP4 PUSH2 0xF50 JUMP JUMPDEST SWAP6 POP DUP1 NOT DUP5 AND SWAP4 POP DUP1 DUP7 AND DUP5 OR SWAP3 POP POP POP SWAP4 SWAP3 POP POP POP JUMP JUMPDEST PUSH0 DUP2 SWAP1 POP SWAP2 SWAP1 POP JUMP JUMPDEST PUSH0 PUSH2 0xFD0 PUSH2 0xFCB PUSH2 0xFC6 DUP5 PUSH2 0xA44 JUMP JUMPDEST PUSH2 0xFAD JUMP JUMPDEST PUSH2 0xA44 JUMP JUMPDEST SWAP1 POP SWAP2 SWAP1 POP JUMP JUMPDEST PUSH0 DUP2 SWAP1 POP SWAP2 SWAP1 POP JUMP JUMPDEST PUSH2 0xFE9 DUP4 PUSH2 0xFB6 JUMP JUMPDEST PUSH2 0xFFD PUSH2 0xFF5 DUP3 PUSH2 0xFD7 JUMP JUMPDEST DUP5 DUP5 SLOAD PUSH2 0xF5C JUMP JUMPDEST DUP3 SSTORE POP POP POP POP JUMP JUMPDEST PUSH0 SWAP1 JUMP JUMPDEST PUSH2 0x1011 PUSH2 0x1005 JUMP JUMPDEST PUSH2 0x101C DUP2 DUP5 DUP5 PUSH2 0xFE0 JUMP JUMPDEST POP POP POP JUMP JUMPDEST JUMPDEST DUP2 DUP2 LT ISZERO PUSH2 0x103F JUMPI PUSH2 0x1034 PUSH0 DUP3 PUSH2 0x1009 JUMP JUMPDEST PUSH1 0x1 DUP2 ADD SWAP1 POP PUSH2 0x1022 JUMP JUMPDEST POP POP JUMP JUMPDEST PUSH1 0x1F DUP3 GT ISZERO PUSH2 0x1084 JUMPI PUSH2 0x1055 DUP2 PUSH2 0xF2F JUMP JUMPDEST PUSH2 0x105E DUP5 PUSH2 0xF41 JUMP JUMPDEST DUP2 ADD PUSH1 0x20 DUP6 LT ISZERO PUSH2 0x106D JUMPI DUP2 SWAP1 POP JUMPDEST PUSH2 0x1081 PUSH2 0x1079 DUP6 PUSH2 0xF41 JUMP JUMPDEST DUP4 ADD DUP3 PUSH2 0x1021 JUMP JUMPDEST POP POP JUMPDEST POP POP POP JUMP JUMPDEST PUSH0 DUP3 DUP3 SHR SWAP1 POP SWAP3 SWAP2 POP POP JUMP JUMPDEST PUSH0 PUSH2 0x10A4 PUSH0 NOT DUP5 PUSH1 0x8 MUL PUSH2 0x1089 JUMP JUMPDEST NOT DUP1 DUP4 AND SWAP2 POP POP SWAP3 SWAP2 POP POP JUMP JUMPDEST PUSH0 PUSH2 0x10BC DUP4 DUP4 PUSH2 0x1095 JUMP JUMPDEST SWAP2 POP DUP3 PUSH1 0x2 MUL DUP3 OR SWAP1 POP SWAP3 SWAP2 POP POP JUMP JUMPDEST PUSH2 0x10D5 DUP3 PUSH2 0x98B JUMP JUMPDEST PUSH8 0xFFFFFFFFFFFFFFFF DUP2 GT ISZERO PUSH2 0x10EE JUMPI PUSH2 0x10ED PUSH2 0x820 JUMP JUMPDEST JUMPDEST PUSH2 0x10F8 DUP3 SLOAD PUSH2 0xE97 JUMP JUMPDEST PUSH2 0x1103 DUP3 DUP3 DUP6 PUSH2 0x1043 JUMP JUMPDEST PUSH0 PUSH1 0x20 SWAP1 POP PUSH1 0x1F DUP4 GT PUSH1 0x1 DUP2 EQ PUSH2 0x1134 JUMPI PUSH0 DUP5 ISZERO PUSH2 0x1122 JUMPI DUP3 DUP8 ADD MLOAD SWAP1 POP JUMPDEST PUSH2 0x112C DUP6 DUP3 PUSH2 0x10B1 JUMP JUMPDEST DUP7 SSTORE POP PUSH2 0x1193 JUMP JUMPDEST PUSH1 0x1F NOT DUP5 AND PUSH2 0x1142 DUP7 PUSH2 0xF2F JUMP JUMPDEST PUSH0 JUMPDEST DUP3 DUP2 LT ISZERO PUSH2 0x1169 JUMPI DUP5 DUP10 ADD MLOAD DUP3 SSTORE PUSH1 0x1 DUP3 ADD SWAP2 POP PUSH1 0x20 DUP6 ADD SWAP5 POP PUSH1 0x20 DUP2 ADD SWAP1 POP PUSH2 0x1144 JUMP JUMPDEST DUP7 DUP4 LT ISZERO PUSH2 0x1186 JUMPI DUP5 DUP10 ADD MLOAD PUSH2 0x1182 PUSH1 0x1F DUP10 AND DUP3 PUSH2 0x1095 JUMP JUMPDEST DUP4 SSTORE POP JUMPDEST PUSH1 0x1 PUSH1 0x2 DUP9 MUL ADD DUP9 SSTORE POP POP POP JUMPDEST POP POP POP POP POP POP JUMP JUMPDEST PUSH32 0x4E487B7100000000000000000000000000000000000000000000000000000000 PUSH0 MSTORE PUSH1 0x11 PUSH1 0x4 MSTORE PUSH1 0x24 PUSH0 REVERT JUMPDEST PUSH0 PUSH2 0x11D2 DUP3 PUSH2 0xA44 JUMP JUMPDEST SWAP2 POP PUSH2 0x11DD DUP4 PUSH2 0xA44 JUMP JUMPDEST SWAP3 POP DUP3 DUP3 SUB SWAP1 POP DUP2 DUP2 GT ISZERO PUSH2 0x11F5 JUMPI PUSH2 0x11F4 PUSH2 0x119B JUMP JUMPDEST JUMPDEST SWAP3 SWAP2 POP POP JUMP INVALID LOG2 PUSH5 0x6970667358 0x22 SLT KECCAK256 0x5D 0xEF 0xB6 PUSH28 0x43ACD566132498F2C3A97698A3C2C86504777B6DB3A901673FEAC008 PUSH5 0x736F6C6343 STOP ADDMOD AND STOP CALLER "
		},
		"gasEstimates": {
			"creation": {
				"codeDepositCost": "931400",
				"executionCost": "966",
				"totalCost": "932366"
			},
			"external": {
				"Store(string,address)": "infinite",
				"documents(uint256)": "infinite",
				"getCount()": "2440",
				"getDocumentbyHash(string)": "infinite",
				"getDocuments()": "infinite"
			}
		},
		"methodIdentifiers": {
			"Store(string,address)": "ce61d6dc",
			"documents(uint256)": "c2ed2b05",
			"getCount()": "a87d942c",
			"getDocumentbyHash(string)": "7cd55d7d",
			"getDocuments()": "ef2d8700"
		}
	},
	"abi": [
		{
			"anonymous": false,
			"inputs": [
				{
					"indexed": false,
					"internalType": "string",
					"name": "ipfsHash",
					"type": "string"
				},
				{
					"indexed": false,
					"internalType": "address",
					"name": "owner",
					"type": "address"
				},
				{
					"indexed": false,
					"internalType": "uint256",
					"name": "storeDate",
					"type": "uint256"
				}
			],
			"name": "StoreDocument",
			"type": "event"
		},
		{
			"inputs": [
				{
					"internalType": "string",
					"name": "_documentHash",
					"type": "string"
				},
				{
					"internalType": "address",
					"name": "_owner",
					"type": "address"
				}
			],
			"name": "Store",
			"outputs": [],
			"stateMutability": "nonpayable",
			"type": "function"
		},
		{
			"inputs": [
				{
					"internalType": "uint256",
					"name": "",
					"type": "uint256"
				}
			],
			"name": "documents",
			"outputs": [
				{
					"internalType": "string",
					"name": "ipfsHash",
					"type": "string"
				},
				{
					"internalType": "address",
					"name": "owner",
					"type": "address"
				},
				{
					"internalType": "uint256",
					"name": "storeDate",
					"type": "uint256"
				}
			],
			"stateMutability": "view",
			"type": "function"
		},
		{
			"inputs": [],
			"name": "getCount",
			"outputs": [
				{
					"internalType": "uint256",
					"name": "",
					"type": "uint256"
				}
			],
			"stateMutability": "view",
			"type": "function"
		},
		{
			"inputs": [
				{
					"internalType": "string",
					"name": "_documentHash",
					"type": "string"
				}
			],
			"name": "getDocumentbyHash",
			"outputs": [
				{
					"components": [
						{
							"internalType": "string",
							"name": "ipfsHash",
							"type": "string"
						},
						{
							"internalType": "address",
							"name": "owner",
							"type": "address"
						},
						{
							"internalType": "uint256",
							"name": "storeDate",
							"type": "uint256"
						}
					],
					"internalType": "struct NotarStore.Document",
					"name": "",
					"type": "tuple"
				}
			],
			"stateMutability": "view",
			"type": "function"
		},
		{
			"inputs": [],
			"name": "getDocuments",
			"outputs": [
				{
					"components": [
						{
							"internalType": "string",
							"name": "ipfsHash",
							"type": "string"
						},
						{
							"internalType": "address",
							"name": "owner",
							"type": "address"
						},
						{
							"internalType": "uint256",
							"name": "storeDate",
							"type": "uint256"
						}
					],
					"internalType": "struct NotarStore.Document[]",
					"name": "",
					"type": "tuple[]"
				}
			],
			"stateMutability": "view",
			"type": "function"
		}
	]
}