{
	"data": {
		"bytecode": {
			"linkReferences": {},
			"object": "608060405234801561000f575f80fd5b506112dc8061001d5f395ff3fe608060405234801561000f575f80fd5b5060043610610060575f3560e01c80632f66fd8d146100645780637cd55d7d14610095578063a87d942c146100c5578063c2ed2b05146100e3578063ce61d6dc14610115578063ef2d870014610131575b5f80fd5b61007e600480360381019061007991906109a2565b61014f565b60405161008c929190610a40565b60405180910390f35b6100af60048036038101906100aa91906109a2565b610171565b6040516100bc9190610b4c565b60405180910390f35b6100cd61038f565b6040516100da9190610b6c565b60405180910390f35b6100fd60048036038101906100f89190610baf565b61039b565b60405161010c93929190610c22565b60405180910390f35b61012f600480360381019061012a9190610c88565b610475565b005b610139610667565b6040516101469190610dea565b60405180910390f35b5f805f61015b84610171565b9050806020015181604001519250925050915091565b610179610820565b6006826040516101899190610e44565b90815260200160405180910390205f9054906101000a900460ff166101e3576040517f08c379a00000000000000000000000000000000000000000000000000000000081526004016101da90610eca565b60405180910390fd5b6101eb610820565b6101f3610820565b5f5b600380549050811015610384576003818154811061021657610215610ee8565b5b905f5260205f2090600302016040518060600160405290815f8201805461023c90610f42565b80601f016020809104026020016040519081016040528092919081815260200182805461026890610f42565b80156102b35780601f1061028a576101008083540402835291602001916102b3565b820191905f5260205f20905b81548152906001019060200180831161029657829003601f168201915b50505050508152602001600182015f9054906101000a900473ffffffffffffffffffffffffffffffffffffffff1673ffffffffffffffffffffffffffffffffffffffff1673ffffffffffffffffffffffffffffffffffffffff16815260200160028201548152505092508460405160200161032e9190610e44565b60405160208183030381529060405280519060200120835f01516040516020016103589190610e44565b6040516020818303038152906040528051906020012003610377578291505b80806001019150506101f5565b508192505050919050565b5f600380549050905090565b600381815481106103aa575f80fd5b905f5260205f2090600302015f91509050805f0180546103c990610f42565b80601f01602080910402602001604051908101604052809291908181526020018280546103f590610f42565b80156104405780601f1061041757610100808354040283529160200191610440565b820191905f5260205f20905b81548152906001019060200180831161042357829003601f168201915b505050505090806001015f9054906101000a900473ffffffffffffffffffffffffffffffffffffffff16908060020154905083565b6006826040516104859190610e44565b90815260200160405180910390205f9054906101000a900460ff16156104e0576040517f08c379a00000000000000000000000000000000000000000000000000000000081526004016104d790610fbc565b60405180910390fd5b5f429050600360405180606001604052808581526020018473ffffffffffffffffffffffffffffffffffffffff16815260200183815250908060018154018082558091505060019003905f5260205f2090600302015f909190919091505f820151815f0190816105509190611177565b506020820151816001015f6101000a81548173ffffffffffffffffffffffffffffffffffffffff021916908373ffffffffffffffffffffffffffffffffffffffff1602179055506040820151816002015550505f60016003805490506105b69190611273565b90503360045f8381526020019081526020015f205f6101000a81548173ffffffffffffffffffffffffffffffffffffffff021916908373ffffffffffffffffffffffffffffffffffffffff1602179055508360055f8381526020019081526020015f2090816106259190611177565b507f459ae8331bb88990c990d1039f3fc1822789ce81874ba193d411b9dc92df07ca84848460405161065993929190610c22565b60405180910390a150505050565b60605f60038054905067ffffffffffffffff8111156106895761068861087e565b5b6040519080825280602002602001820160405280156106c257816020015b6106af610820565b8152602001906001900390816106a75790505b5090505f5b60038054905081101561081857600381815481106106e8576106e7610ee8565b5b905f5260205f2090600302016040518060600160405290815f8201805461070e90610f42565b80601f016020809104026020016040519081016040528092919081815260200182805461073a90610f42565b80156107855780601f1061075c57610100808354040283529160200191610785565b820191905f5260205f20905b81548152906001019060200180831161076857829003601f168201915b50505050508152602001600182015f9054906101000a900473ffffffffffffffffffffffffffffffffffffffff1673ffffffffffffffffffffffffffffffffffffffff1673ffffffffffffffffffffffffffffffffffffffff168152602001600282015481525050828281518110610800576107ff610ee8565b5b602002602001018190525080806001019150506106c7565b508091505090565b6040518060600160405280606081526020015f73ffffffffffffffffffffffffffffffffffffffff1681526020015f81525090565b5f604051905090565b5f80fd5b5f80fd5b5f80fd5b5f80fd5b5f601f19601f8301169050919050565b7f4e487b71000000000000000000000000000000000000000000000000000000005f52604160045260245ffd5b6108b48261086e565b810181811067ffffffffffffffff821117156108d3576108d261087e565b5b80604052505050565b5f6108e5610855565b90506108f182826108ab565b919050565b5f67ffffffffffffffff8211156109105761090f61087e565b5b6109198261086e565b9050602081019050919050565b828183375f83830152505050565b5f610946610941846108f6565b6108dc565b9050828152602081018484840111156109625761096161086a565b5b61096d848285610926565b509392505050565b5f82601f83011261098957610988610866565b5b8135610999848260208601610934565b91505092915050565b5f602082840312156109b7576109b661085e565b5b5f82013567ffffffffffffffff8111156109d4576109d3610862565b5b6109e084828501610975565b91505092915050565b5f73ffffffffffffffffffffffffffffffffffffffff82169050919050565b5f610a12826109e9565b9050919050565b610a2281610a08565b82525050565b5f819050919050565b610a3a81610a28565b82525050565b5f604082019050610a535f830185610a19565b610a606020830184610a31565b9392505050565b5f81519050919050565b5f82825260208201905092915050565b5f5b83811015610a9e578082015181840152602081019050610a83565b5f8484015250505050565b5f610ab382610a67565b610abd8185610a71565b9350610acd818560208601610a81565b610ad68161086e565b840191505092915050565b610aea81610a08565b82525050565b610af981610a28565b82525050565b5f606083015f8301518482035f860152610b198282610aa9565b9150506020830151610b2e6020860182610ae1565b506040830151610b416040860182610af0565b508091505092915050565b5f6020820190508181035f830152610b648184610aff565b905092915050565b5f602082019050610b7f5f830184610a31565b92915050565b610b8e81610a28565b8114610b98575f80fd5b50565b5f81359050610ba981610b85565b92915050565b5f60208284031215610bc457610bc361085e565b5b5f610bd184828501610b9b565b91505092915050565b5f82825260208201905092915050565b5f610bf482610a67565b610bfe8185610bda565b9350610c0e818560208601610a81565b610c178161086e565b840191505092915050565b5f6060820190508181035f830152610c3a8186610bea565b9050610c496020830185610a19565b610c566040830184610a31565b949350505050565b610c6781610a08565b8114610c71575f80fd5b50565b5f81359050610c8281610c5e565b92915050565b5f8060408385031215610c9e57610c9d61085e565b5b5f83013567ffffffffffffffff811115610cbb57610cba610862565b5b610cc785828601610975565b9250506020610cd885828601610c74565b9150509250929050565b5f81519050919050565b5f82825260208201905092915050565b5f819050602082019050919050565b5f606083015f8301518482035f860152610d258282610aa9565b9150506020830151610d3a6020860182610ae1565b506040830151610d4d6040860182610af0565b508091505092915050565b5f610d638383610d0b565b905092915050565b5f602082019050919050565b5f610d8182610ce2565b610d8b8185610cec565b935083602082028501610d9d85610cfc565b805f5b85811015610dd85784840389528151610db98582610d58565b9450610dc483610d6b565b925060208a01995050600181019050610da0565b50829750879550505050505092915050565b5f6020820190508181035f830152610e028184610d77565b905092915050565b5f81905092915050565b5f610e1e82610a67565b610e288185610e0a565b9350610e38818560208601610a81565b80840191505092915050565b5f610e4f8284610e14565b915081905092915050565b7f46616c73652048617368206f7220446f63756d656e7420646f6573206e6f74205f8201527f6578697374000000000000000000000000000000000000000000000000000000602082015250565b5f610eb4602583610bda565b9150610ebf82610e5a565b604082019050919050565b5f6020820190508181035f830152610ee181610ea8565b9050919050565b7f4e487b71000000000000000000000000000000000000000000000000000000005f52603260045260245ffd5b7f4e487b71000000000000000000000000000000000000000000000000000000005f52602260045260245ffd5b5f6002820490506001821680610f5957607f821691505b602082108103610f6c57610f6b610f15565b5b50919050565b7f46696c6520616c72656164792073746f726564000000000000000000000000005f82015250565b5f610fa6601383610bda565b9150610fb182610f72565b602082019050919050565b5f6020820190508181035f830152610fd381610f9a565b9050919050565b5f819050815f5260205f209050919050565b5f6020601f8301049050919050565b5f82821b905092915050565b5f600883026110367fffffffffffffffffffffffffffffffffffffffffffffffffffffffffffffffff82610ffb565b6110408683610ffb565b95508019841693508086168417925050509392505050565b5f819050919050565b5f61107b61107661107184610a28565b611058565b610a28565b9050919050565b5f819050919050565b61109483611061565b6110a86110a082611082565b848454611007565b825550505050565b5f90565b6110bc6110b0565b6110c781848461108b565b505050565b5b818110156110ea576110df5f826110b4565b6001810190506110cd565b5050565b601f82111561112f5761110081610fda565b61110984610fec565b81016020851015611118578190505b61112c61112485610fec565b8301826110cc565b50505b505050565b5f82821c905092915050565b5f61114f5f1984600802611134565b1980831691505092915050565b5f6111678383611140565b9150826002028217905092915050565b61118082610a67565b67ffffffffffffffff8111156111995761119861087e565b5b6111a38254610f42565b6111ae8282856110ee565b5f60209050601f8311600181146111df575f84156111cd578287015190505b6111d7858261115c565b86555061123e565b601f1984166111ed86610fda565b5f5b82811015611214578489015182556001820191506020850194506020810190506111ef565b86831015611231578489015161122d601f891682611140565b8355505b6001600288020188555050505b505050505050565b7f4e487b71000000000000000000000000000000000000000000000000000000005f52601160045260245ffd5b5f61127d82610a28565b915061128883610a28565b92508282039050818111156112a05761129f611246565b5b9291505056fea2646970667358221220f42a4252e0f1287ad3d23f7fdf3a3a377b815c11ca23629f2b97d7336057b3b964736f6c63430008160033",
			"opcodes": "PUSH1 0x80 PUSH1 0x40 MSTORE CALLVALUE DUP1 ISZERO PUSH2 0xF JUMPI PUSH0 DUP1 REVERT JUMPDEST POP PUSH2 0x12DC DUP1 PUSH2 0x1D PUSH0 CODECOPY PUSH0 RETURN INVALID PUSH1 0x80 PUSH1 0x40 MSTORE CALLVALUE DUP1 ISZERO PUSH2 0xF JUMPI PUSH0 DUP1 REVERT JUMPDEST POP PUSH1 0x4 CALLDATASIZE LT PUSH2 0x60 JUMPI PUSH0 CALLDATALOAD PUSH1 0xE0 SHR DUP1 PUSH4 0x2F66FD8D EQ PUSH2 0x64 JUMPI DUP1 PUSH4 0x7CD55D7D EQ PUSH2 0x95 JUMPI DUP1 PUSH4 0xA87D942C EQ PUSH2 0xC5 JUMPI DUP1 PUSH4 0xC2ED2B05 EQ PUSH2 0xE3 JUMPI DUP1 PUSH4 0xCE61D6DC EQ PUSH2 0x115 JUMPI DUP1 PUSH4 0xEF2D8700 EQ PUSH2 0x131 JUMPI JUMPDEST PUSH0 DUP1 REVERT JUMPDEST PUSH2 0x7E PUSH1 0x4 DUP1 CALLDATASIZE SUB DUP2 ADD SWAP1 PUSH2 0x79 SWAP2 SWAP1 PUSH2 0x9A2 JUMP JUMPDEST PUSH2 0x14F JUMP JUMPDEST PUSH1 0x40 MLOAD PUSH2 0x8C SWAP3 SWAP2 SWAP1 PUSH2 0xA40 JUMP JUMPDEST PUSH1 0x40 MLOAD DUP1 SWAP2 SUB SWAP1 RETURN JUMPDEST PUSH2 0xAF PUSH1 0x4 DUP1 CALLDATASIZE SUB DUP2 ADD SWAP1 PUSH2 0xAA SWAP2 SWAP1 PUSH2 0x9A2 JUMP JUMPDEST PUSH2 0x171 JUMP JUMPDEST PUSH1 0x40 MLOAD PUSH2 0xBC SWAP2 SWAP1 PUSH2 0xB4C JUMP JUMPDEST PUSH1 0x40 MLOAD DUP1 SWAP2 SUB SWAP1 RETURN JUMPDEST PUSH2 0xCD PUSH2 0x38F JUMP JUMPDEST PUSH1 0x40 MLOAD PUSH2 0xDA SWAP2 SWAP1 PUSH2 0xB6C JUMP JUMPDEST PUSH1 0x40 MLOAD DUP1 SWAP2 SUB SWAP1 RETURN JUMPDEST PUSH2 0xFD PUSH1 0x4 DUP1 CALLDATASIZE SUB DUP2 ADD SWAP1 PUSH2 0xF8 SWAP2 SWAP1 PUSH2 0xBAF JUMP JUMPDEST PUSH2 0x39B JUMP JUMPDEST PUSH1 0x40 MLOAD PUSH2 0x10C SWAP4 SWAP3 SWAP2 SWAP1 PUSH2 0xC22 JUMP JUMPDEST PUSH1 0x40 MLOAD DUP1 SWAP2 SUB SWAP1 RETURN JUMPDEST PUSH2 0x12F PUSH1 0x4 DUP1 CALLDATASIZE SUB DUP2 ADD SWAP1 PUSH2 0x12A SWAP2 SWAP1 PUSH2 0xC88 JUMP JUMPDEST PUSH2 0x475 JUMP JUMPDEST STOP JUMPDEST PUSH2 0x139 PUSH2 0x667 JUMP JUMPDEST PUSH1 0x40 MLOAD PUSH2 0x146 SWAP2 SWAP1 PUSH2 0xDEA JUMP JUMPDEST PUSH1 0x40 MLOAD DUP1 SWAP2 SUB SWAP1 RETURN JUMPDEST PUSH0 DUP1 PUSH0 PUSH2 0x15B DUP5 PUSH2 0x171 JUMP JUMPDEST SWAP1 POP DUP1 PUSH1 0x20 ADD MLOAD DUP2 PUSH1 0x40 ADD MLOAD SWAP3 POP SWAP3 POP POP SWAP2 POP SWAP2 JUMP JUMPDEST PUSH2 0x179 PUSH2 0x820 JUMP JUMPDEST PUSH1 0x6 DUP3 PUSH1 0x40 MLOAD PUSH2 0x189 SWAP2 SWAP1 PUSH2 0xE44 JUMP JUMPDEST SWAP1 DUP2 MSTORE PUSH1 0x20 ADD PUSH1 0x40 MLOAD DUP1 SWAP2 SUB SWAP1 KECCAK256 PUSH0 SWAP1 SLOAD SWAP1 PUSH2 0x100 EXP SWAP1 DIV PUSH1 0xFF AND PUSH2 0x1E3 JUMPI PUSH1 0x40 MLOAD PUSH32 0x8C379A000000000000000000000000000000000000000000000000000000000 DUP2 MSTORE PUSH1 0x4 ADD PUSH2 0x1DA SWAP1 PUSH2 0xECA JUMP JUMPDEST PUSH1 0x40 MLOAD DUP1 SWAP2 SUB SWAP1 REVERT JUMPDEST PUSH2 0x1EB PUSH2 0x820 JUMP JUMPDEST PUSH2 0x1F3 PUSH2 0x820 JUMP JUMPDEST PUSH0 JUMPDEST PUSH1 0x3 DUP1 SLOAD SWAP1 POP DUP2 LT ISZERO PUSH2 0x384 JUMPI PUSH1 0x3 DUP2 DUP2 SLOAD DUP2 LT PUSH2 0x216 JUMPI PUSH2 0x215 PUSH2 0xEE8 JUMP JUMPDEST JUMPDEST SWAP1 PUSH0 MSTORE PUSH1 0x20 PUSH0 KECCAK256 SWAP1 PUSH1 0x3 MUL ADD PUSH1 0x40 MLOAD DUP1 PUSH1 0x60 ADD PUSH1 0x40 MSTORE SWAP1 DUP2 PUSH0 DUP3 ADD DUP1 SLOAD PUSH2 0x23C SWAP1 PUSH2 0xF42 JUMP JUMPDEST DUP1 PUSH1 0x1F ADD PUSH1 0x20 DUP1 SWAP2 DIV MUL PUSH1 0x20 ADD PUSH1 0x40 MLOAD SWAP1 DUP2 ADD PUSH1 0x40 MSTORE DUP1 SWAP3 SWAP2 SWAP1 DUP2 DUP2 MSTORE PUSH1 0x20 ADD DUP3 DUP1 SLOAD PUSH2 0x268 SWAP1 PUSH2 0xF42 JUMP JUMPDEST DUP1 ISZERO PUSH2 0x2B3 JUMPI DUP1 PUSH1 0x1F LT PUSH2 0x28A JUMPI PUSH2 0x100 DUP1 DUP4 SLOAD DIV MUL DUP4 MSTORE SWAP2 PUSH1 0x20 ADD SWAP2 PUSH2 0x2B3 JUMP JUMPDEST DUP3 ADD SWAP2 SWAP1 PUSH0 MSTORE PUSH1 0x20 PUSH0 KECCAK256 SWAP1 JUMPDEST DUP2 SLOAD DUP2 MSTORE SWAP1 PUSH1 0x1 ADD SWAP1 PUSH1 0x20 ADD DUP1 DUP4 GT PUSH2 0x296 JUMPI DUP3 SWAP1 SUB PUSH1 0x1F AND DUP3 ADD SWAP2 JUMPDEST POP POP POP POP POP DUP2 MSTORE PUSH1 0x20 ADD PUSH1 0x1 DUP3 ADD PUSH0 SWAP1 SLOAD SWAP1 PUSH2 0x100 EXP SWAP1 DIV PUSH20 0xFFFFFFFFFFFFFFFFFFFFFFFFFFFFFFFFFFFFFFFF AND PUSH20 0xFFFFFFFFFFFFFFFFFFFFFFFFFFFFFFFFFFFFFFFF AND PUSH20 0xFFFFFFFFFFFFFFFFFFFFFFFFFFFFFFFFFFFFFFFF AND DUP2 MSTORE PUSH1 0x20 ADD PUSH1 0x2 DUP3 ADD SLOAD DUP2 MSTORE POP POP SWAP3 POP DUP5 PUSH1 0x40 MLOAD PUSH1 0x20 ADD PUSH2 0x32E SWAP2 SWAP1 PUSH2 0xE44 JUMP JUMPDEST PUSH1 0x40 MLOAD PUSH1 0x20 DUP2 DUP4 SUB SUB DUP2 MSTORE SWAP1 PUSH1 0x40 MSTORE DUP1 MLOAD SWAP1 PUSH1 0x20 ADD KECCAK256 DUP4 PUSH0 ADD MLOAD PUSH1 0x40 MLOAD PUSH1 0x20 ADD PUSH2 0x358 SWAP2 SWAP1 PUSH2 0xE44 JUMP JUMPDEST PUSH1 0x40 MLOAD PUSH1 0x20 DUP2 DUP4 SUB SUB DUP2 MSTORE SWAP1 PUSH1 0x40 MSTORE DUP1 MLOAD SWAP1 PUSH1 0x20 ADD KECCAK256 SUB PUSH2 0x377 JUMPI DUP3 SWAP2 POP JUMPDEST DUP1 DUP1 PUSH1 0x1 ADD SWAP2 POP POP PUSH2 0x1F5 JUMP JUMPDEST POP DUP2 SWAP3 POP POP POP SWAP2 SWAP1 POP JUMP JUMPDEST PUSH0 PUSH1 0x3 DUP1 SLOAD SWAP1 POP SWAP1 POP SWAP1 JUMP JUMPDEST PUSH1 0x3 DUP2 DUP2 SLOAD DUP2 LT PUSH2 0x3AA JUMPI PUSH0 DUP1 REVERT JUMPDEST SWAP1 PUSH0 MSTORE PUSH1 0x20 PUSH0 KECCAK256 SWAP1 PUSH1 0x3 MUL ADD PUSH0 SWAP2 POP SWAP1 POP DUP1 PUSH0 ADD DUP1 SLOAD PUSH2 0x3C9 SWAP1 PUSH2 0xF42 JUMP JUMPDEST DUP1 PUSH1 0x1F ADD PUSH1 0x20 DUP1 SWAP2 DIV MUL PUSH1 0x20 ADD PUSH1 0x40 MLOAD SWAP1 DUP2 ADD PUSH1 0x40 MSTORE DUP1 SWAP3 SWAP2 SWAP1 DUP2 DUP2 MSTORE PUSH1 0x20 ADD DUP3 DUP1 SLOAD PUSH2 0x3F5 SWAP1 PUSH2 0xF42 JUMP JUMPDEST DUP1 ISZERO PUSH2 0x440 JUMPI DUP1 PUSH1 0x1F LT PUSH2 0x417 JUMPI PUSH2 0x100 DUP1 DUP4 SLOAD DIV MUL DUP4 MSTORE SWAP2 PUSH1 0x20 ADD SWAP2 PUSH2 0x440 JUMP JUMPDEST DUP3 ADD SWAP2 SWAP1 PUSH0 MSTORE PUSH1 0x20 PUSH0 KECCAK256 SWAP1 JUMPDEST DUP2 SLOAD DUP2 MSTORE SWAP1 PUSH1 0x1 ADD SWAP1 PUSH1 0x20 ADD DUP1 DUP4 GT PUSH2 0x423 JUMPI DUP3 SWAP1 SUB PUSH1 0x1F AND DUP3 ADD SWAP2 JUMPDEST POP POP POP POP POP SWAP1 DUP1 PUSH1 0x1 ADD PUSH0 SWAP1 SLOAD SWAP1 PUSH2 0x100 EXP SWAP1 DIV PUSH20 0xFFFFFFFFFFFFFFFFFFFFFFFFFFFFFFFFFFFFFFFF AND SWAP1 DUP1 PUSH1 0x2 ADD SLOAD SWAP1 POP DUP4 JUMP JUMPDEST PUSH1 0x6 DUP3 PUSH1 0x40 MLOAD PUSH2 0x485 SWAP2 SWAP1 PUSH2 0xE44 JUMP JUMPDEST SWAP1 DUP2 MSTORE PUSH1 0x20 ADD PUSH1 0x40 MLOAD DUP1 SWAP2 SUB SWAP1 KECCAK256 PUSH0 SWAP1 SLOAD SWAP1 PUSH2 0x100 EXP SWAP1 DIV PUSH1 0xFF AND ISZERO PUSH2 0x4E0 JUMPI PUSH1 0x40 MLOAD PUSH32 0x8C379A000000000000000000000000000000000000000000000000000000000 DUP2 MSTORE PUSH1 0x4 ADD PUSH2 0x4D7 SWAP1 PUSH2 0xFBC JUMP JUMPDEST PUSH1 0x40 MLOAD DUP1 SWAP2 SUB SWAP1 REVERT JUMPDEST PUSH0 TIMESTAMP SWAP1 POP PUSH1 0x3 PUSH1 0x40 MLOAD DUP1 PUSH1 0x60 ADD PUSH1 0x40 MSTORE DUP1 DUP6 DUP2 MSTORE PUSH1 0x20 ADD DUP5 PUSH20 0xFFFFFFFFFFFFFFFFFFFFFFFFFFFFFFFFFFFFFFFF AND DUP2 MSTORE PUSH1 0x20 ADD DUP4 DUP2 MSTORE POP SWAP1 DUP1 PUSH1 0x1 DUP2 SLOAD ADD DUP1 DUP3 SSTORE DUP1 SWAP2 POP POP PUSH1 0x1 SWAP1 SUB SWAP1 PUSH0 MSTORE PUSH1 0x20 PUSH0 KECCAK256 SWAP1 PUSH1 0x3 MUL ADD PUSH0 SWAP1 SWAP2 SWAP1 SWAP2 SWAP1 SWAP2 POP PUSH0 DUP3 ADD MLOAD DUP2 PUSH0 ADD SWAP1 DUP2 PUSH2 0x550 SWAP2 SWAP1 PUSH2 0x1177 JUMP JUMPDEST POP PUSH1 0x20 DUP3 ADD MLOAD DUP2 PUSH1 0x1 ADD PUSH0 PUSH2 0x100 EXP DUP2 SLOAD DUP2 PUSH20 0xFFFFFFFFFFFFFFFFFFFFFFFFFFFFFFFFFFFFFFFF MUL NOT AND SWAP1 DUP4 PUSH20 0xFFFFFFFFFFFFFFFFFFFFFFFFFFFFFFFFFFFFFFFF AND MUL OR SWAP1 SSTORE POP PUSH1 0x40 DUP3 ADD MLOAD DUP2 PUSH1 0x2 ADD SSTORE POP POP PUSH0 PUSH1 0x1 PUSH1 0x3 DUP1 SLOAD SWAP1 POP PUSH2 0x5B6 SWAP2 SWAP1 PUSH2 0x1273 JUMP JUMPDEST SWAP1 POP CALLER PUSH1 0x4 PUSH0 DUP4 DUP2 MSTORE PUSH1 0x20 ADD SWAP1 DUP2 MSTORE PUSH1 0x20 ADD PUSH0 KECCAK256 PUSH0 PUSH2 0x100 EXP DUP2 SLOAD DUP2 PUSH20 0xFFFFFFFFFFFFFFFFFFFFFFFFFFFFFFFFFFFFFFFF MUL NOT AND SWAP1 DUP4 PUSH20 0xFFFFFFFFFFFFFFFFFFFFFFFFFFFFFFFFFFFFFFFF AND MUL OR SWAP1 SSTORE POP DUP4 PUSH1 0x5 PUSH0 DUP4 DUP2 MSTORE PUSH1 0x20 ADD SWAP1 DUP2 MSTORE PUSH1 0x20 ADD PUSH0 KECCAK256 SWAP1 DUP2 PUSH2 0x625 SWAP2 SWAP1 PUSH2 0x1177 JUMP JUMPDEST POP PUSH32 0x459AE8331BB88990C990D1039F3FC1822789CE81874BA193D411B9DC92DF07CA DUP5 DUP5 DUP5 PUSH1 0x40 MLOAD PUSH2 0x659 SWAP4 SWAP3 SWAP2 SWAP1 PUSH2 0xC22 JUMP JUMPDEST PUSH1 0x40 MLOAD DUP1 SWAP2 SUB SWAP1 LOG1 POP POP POP POP JUMP JUMPDEST PUSH1 0x60 PUSH0 PUSH1 0x3 DUP1 SLOAD SWAP1 POP PUSH8 0xFFFFFFFFFFFFFFFF DUP2 GT ISZERO PUSH2 0x689 JUMPI PUSH2 0x688 PUSH2 0x87E JUMP JUMPDEST JUMPDEST PUSH1 0x40 MLOAD SWAP1 DUP1 DUP3 MSTORE DUP1 PUSH1 0x20 MUL PUSH1 0x20 ADD DUP3 ADD PUSH1 0x40 MSTORE DUP1 ISZERO PUSH2 0x6C2 JUMPI DUP2 PUSH1 0x20 ADD JUMPDEST PUSH2 0x6AF PUSH2 0x820 JUMP JUMPDEST DUP2 MSTORE PUSH1 0x20 ADD SWAP1 PUSH1 0x1 SWAP1 SUB SWAP1 DUP2 PUSH2 0x6A7 JUMPI SWAP1 POP JUMPDEST POP SWAP1 POP PUSH0 JUMPDEST PUSH1 0x3 DUP1 SLOAD SWAP1 POP DUP2 LT ISZERO PUSH2 0x818 JUMPI PUSH1 0x3 DUP2 DUP2 SLOAD DUP2 LT PUSH2 0x6E8 JUMPI PUSH2 0x6E7 PUSH2 0xEE8 JUMP JUMPDEST JUMPDEST SWAP1 PUSH0 MSTORE PUSH1 0x20 PUSH0 KECCAK256 SWAP1 PUSH1 0x3 MUL ADD PUSH1 0x40 MLOAD DUP1 PUSH1 0x60 ADD PUSH1 0x40 MSTORE SWAP1 DUP2 PUSH0 DUP3 ADD DUP1 SLOAD PUSH2 0x70E SWAP1 PUSH2 0xF42 JUMP JUMPDEST DUP1 PUSH1 0x1F ADD PUSH1 0x20 DUP1 SWAP2 DIV MUL PUSH1 0x20 ADD PUSH1 0x40 MLOAD SWAP1 DUP2 ADD PUSH1 0x40 MSTORE DUP1 SWAP3 SWAP2 SWAP1 DUP2 DUP2 MSTORE PUSH1 0x20 ADD DUP3 DUP1 SLOAD PUSH2 0x73A SWAP1 PUSH2 0xF42 JUMP JUMPDEST DUP1 ISZERO PUSH2 0x785 JUMPI DUP1 PUSH1 0x1F LT PUSH2 0x75C JUMPI PUSH2 0x100 DUP1 DUP4 SLOAD DIV MUL DUP4 MSTORE SWAP2 PUSH1 0x20 ADD SWAP2 PUSH2 0x785 JUMP JUMPDEST DUP3 ADD SWAP2 SWAP1 PUSH0 MSTORE PUSH1 0x20 PUSH0 KECCAK256 SWAP1 JUMPDEST DUP2 SLOAD DUP2 MSTORE SWAP1 PUSH1 0x1 ADD SWAP1 PUSH1 0x20 ADD DUP1 DUP4 GT PUSH2 0x768 JUMPI DUP3 SWAP1 SUB PUSH1 0x1F AND DUP3 ADD SWAP2 JUMPDEST POP POP POP POP POP DUP2 MSTORE PUSH1 0x20 ADD PUSH1 0x1 DUP3 ADD PUSH0 SWAP1 SLOAD SWAP1 PUSH2 0x100 EXP SWAP1 DIV PUSH20 0xFFFFFFFFFFFFFFFFFFFFFFFFFFFFFFFFFFFFFFFF AND PUSH20 0xFFFFFFFFFFFFFFFFFFFFFFFFFFFFFFFFFFFFFFFF AND PUSH20 0xFFFFFFFFFFFFFFFFFFFFFFFFFFFFFFFFFFFFFFFF AND DUP2 MSTORE PUSH1 0x20 ADD PUSH1 0x2 DUP3 ADD SLOAD DUP2 MSTORE POP POP DUP3 DUP3 DUP2 MLOAD DUP2 LT PUSH2 0x800 JUMPI PUSH2 0x7FF PUSH2 0xEE8 JUMP JUMPDEST JUMPDEST PUSH1 0x20 MUL PUSH1 0x20 ADD ADD DUP2 SWAP1 MSTORE POP DUP1 DUP1 PUSH1 0x1 ADD SWAP2 POP POP PUSH2 0x6C7 JUMP JUMPDEST POP DUP1 SWAP2 POP POP SWAP1 JUMP JUMPDEST PUSH1 0x40 MLOAD DUP1 PUSH1 0x60 ADD PUSH1 0x40 MSTORE DUP1 PUSH1 0x60 DUP2 MSTORE PUSH1 0x20 ADD PUSH0 PUSH20 0xFFFFFFFFFFFFFFFFFFFFFFFFFFFFFFFFFFFFFFFF AND DUP2 MSTORE PUSH1 0x20 ADD PUSH0 DUP2 MSTORE POP SWAP1 JUMP JUMPDEST PUSH0 PUSH1 0x40 MLOAD SWAP1 POP SWAP1 JUMP JUMPDEST PUSH0 DUP1 REVERT JUMPDEST PUSH0 DUP1 REVERT JUMPDEST PUSH0 DUP1 REVERT JUMPDEST PUSH0 DUP1 REVERT JUMPDEST PUSH0 PUSH1 0x1F NOT PUSH1 0x1F DUP4 ADD AND SWAP1 POP SWAP2 SWAP1 POP JUMP JUMPDEST PUSH32 0x4E487B7100000000000000000000000000000000000000000000000000000000 PUSH0 MSTORE PUSH1 0x41 PUSH1 0x4 MSTORE PUSH1 0x24 PUSH0 REVERT JUMPDEST PUSH2 0x8B4 DUP3 PUSH2 0x86E JUMP JUMPDEST DUP2 ADD DUP2 DUP2 LT PUSH8 0xFFFFFFFFFFFFFFFF DUP3 GT OR ISZERO PUSH2 0x8D3 JUMPI PUSH2 0x8D2 PUSH2 0x87E JUMP JUMPDEST JUMPDEST DUP1 PUSH1 0x40 MSTORE POP POP POP JUMP JUMPDEST PUSH0 PUSH2 0x8E5 PUSH2 0x855 JUMP JUMPDEST SWAP1 POP PUSH2 0x8F1 DUP3 DUP3 PUSH2 0x8AB JUMP JUMPDEST SWAP2 SWAP1 POP JUMP JUMPDEST PUSH0 PUSH8 0xFFFFFFFFFFFFFFFF DUP3 GT ISZERO PUSH2 0x910 JUMPI PUSH2 0x90F PUSH2 0x87E JUMP JUMPDEST JUMPDEST PUSH2 0x919 DUP3 PUSH2 0x86E JUMP JUMPDEST SWAP1 POP PUSH1 0x20 DUP2 ADD SWAP1 POP SWAP2 SWAP1 POP JUMP JUMPDEST DUP3 DUP2 DUP4 CALLDATACOPY PUSH0 DUP4 DUP4 ADD MSTORE POP POP POP JUMP JUMPDEST PUSH0 PUSH2 0x946 PUSH2 0x941 DUP5 PUSH2 0x8F6 JUMP JUMPDEST PUSH2 0x8DC JUMP JUMPDEST SWAP1 POP DUP3 DUP2 MSTORE PUSH1 0x20 DUP2 ADD DUP5 DUP5 DUP5 ADD GT ISZERO PUSH2 0x962 JUMPI PUSH2 0x961 PUSH2 0x86A JUMP JUMPDEST JUMPDEST PUSH2 0x96D DUP5 DUP3 DUP6 PUSH2 0x926 JUMP JUMPDEST POP SWAP4 SWAP3 POP POP POP JUMP JUMPDEST PUSH0 DUP3 PUSH1 0x1F DUP4 ADD SLT PUSH2 0x989 JUMPI PUSH2 0x988 PUSH2 0x866 JUMP JUMPDEST JUMPDEST DUP2 CALLDATALOAD PUSH2 0x999 DUP5 DUP3 PUSH1 0x20 DUP7 ADD PUSH2 0x934 JUMP JUMPDEST SWAP2 POP POP SWAP3 SWAP2 POP POP JUMP JUMPDEST PUSH0 PUSH1 0x20 DUP3 DUP5 SUB SLT ISZERO PUSH2 0x9B7 JUMPI PUSH2 0x9B6 PUSH2 0x85E JUMP JUMPDEST JUMPDEST PUSH0 DUP3 ADD CALLDATALOAD PUSH8 0xFFFFFFFFFFFFFFFF DUP2 GT ISZERO PUSH2 0x9D4 JUMPI PUSH2 0x9D3 PUSH2 0x862 JUMP JUMPDEST JUMPDEST PUSH2 0x9E0 DUP5 DUP3 DUP6 ADD PUSH2 0x975 JUMP JUMPDEST SWAP2 POP POP SWAP3 SWAP2 POP POP JUMP JUMPDEST PUSH0 PUSH20 0xFFFFFFFFFFFFFFFFFFFFFFFFFFFFFFFFFFFFFFFF DUP3 AND SWAP1 POP SWAP2 SWAP1 POP JUMP JUMPDEST PUSH0 PUSH2 0xA12 DUP3 PUSH2 0x9E9 JUMP JUMPDEST SWAP1 POP SWAP2 SWAP1 POP JUMP JUMPDEST PUSH2 0xA22 DUP2 PUSH2 0xA08 JUMP JUMPDEST DUP3 MSTORE POP POP JUMP JUMPDEST PUSH0 DUP2 SWAP1 POP SWAP2 SWAP1 POP JUMP JUMPDEST PUSH2 0xA3A DUP2 PUSH2 0xA28 JUMP JUMPDEST DUP3 MSTORE POP POP JUMP JUMPDEST PUSH0 PUSH1 0x40 DUP3 ADD SWAP1 POP PUSH2 0xA53 PUSH0 DUP4 ADD DUP6 PUSH2 0xA19 JUMP JUMPDEST PUSH2 0xA60 PUSH1 0x20 DUP4 ADD DUP5 PUSH2 0xA31 JUMP JUMPDEST SWAP4 SWAP3 POP POP POP JUMP JUMPDEST PUSH0 DUP2 MLOAD SWAP1 POP SWAP2 SWAP1 POP JUMP JUMPDEST PUSH0 DUP3 DUP3 MSTORE PUSH1 0x20 DUP3 ADD SWAP1 POP SWAP3 SWAP2 POP POP JUMP JUMPDEST PUSH0 JUMPDEST DUP4 DUP2 LT ISZERO PUSH2 0xA9E JUMPI DUP1 DUP3 ADD MLOAD DUP2 DUP5 ADD MSTORE PUSH1 0x20 DUP2 ADD SWAP1 POP PUSH2 0xA83 JUMP JUMPDEST PUSH0 DUP5 DUP5 ADD MSTORE POP POP POP POP JUMP JUMPDEST PUSH0 PUSH2 0xAB3 DUP3 PUSH2 0xA67 JUMP JUMPDEST PUSH2 0xABD DUP2 DUP6 PUSH2 0xA71 JUMP JUMPDEST SWAP4 POP PUSH2 0xACD DUP2 DUP6 PUSH1 0x20 DUP7 ADD PUSH2 0xA81 JUMP JUMPDEST PUSH2 0xAD6 DUP2 PUSH2 0x86E JUMP JUMPDEST DUP5 ADD SWAP2 POP POP SWAP3 SWAP2 POP POP JUMP JUMPDEST PUSH2 0xAEA DUP2 PUSH2 0xA08 JUMP JUMPDEST DUP3 MSTORE POP POP JUMP JUMPDEST PUSH2 0xAF9 DUP2 PUSH2 0xA28 JUMP JUMPDEST DUP3 MSTORE POP POP JUMP JUMPDEST PUSH0 PUSH1 0x60 DUP4 ADD PUSH0 DUP4 ADD MLOAD DUP5 DUP3 SUB PUSH0 DUP7 ADD MSTORE PUSH2 0xB19 DUP3 DUP3 PUSH2 0xAA9 JUMP JUMPDEST SWAP2 POP POP PUSH1 0x20 DUP4 ADD MLOAD PUSH2 0xB2E PUSH1 0x20 DUP7 ADD DUP3 PUSH2 0xAE1 JUMP JUMPDEST POP PUSH1 0x40 DUP4 ADD MLOAD PUSH2 0xB41 PUSH1 0x40 DUP7 ADD DUP3 PUSH2 0xAF0 JUMP JUMPDEST POP DUP1 SWAP2 POP POP SWAP3 SWAP2 POP POP JUMP JUMPDEST PUSH0 PUSH1 0x20 DUP3 ADD SWAP1 POP DUP2 DUP2 SUB PUSH0 DUP4 ADD MSTORE PUSH2 0xB64 DUP2 DUP5 PUSH2 0xAFF JUMP JUMPDEST SWAP1 POP SWAP3 SWAP2 POP POP JUMP JUMPDEST PUSH0 PUSH1 0x20 DUP3 ADD SWAP1 POP PUSH2 0xB7F PUSH0 DUP4 ADD DUP5 PUSH2 0xA31 JUMP JUMPDEST SWAP3 SWAP2 POP POP JUMP JUMPDEST PUSH2 0xB8E DUP2 PUSH2 0xA28 JUMP JUMPDEST DUP2 EQ PUSH2 0xB98 JUMPI PUSH0 DUP1 REVERT JUMPDEST POP JUMP JUMPDEST PUSH0 DUP2 CALLDATALOAD SWAP1 POP PUSH2 0xBA9 DUP2 PUSH2 0xB85 JUMP JUMPDEST SWAP3 SWAP2 POP POP JUMP JUMPDEST PUSH0 PUSH1 0x20 DUP3 DUP5 SUB SLT ISZERO PUSH2 0xBC4 JUMPI PUSH2 0xBC3 PUSH2 0x85E JUMP JUMPDEST JUMPDEST PUSH0 PUSH2 0xBD1 DUP5 DUP3 DUP6 ADD PUSH2 0xB9B JUMP JUMPDEST SWAP2 POP POP SWAP3 SWAP2 POP POP JUMP JUMPDEST PUSH0 DUP3 DUP3 MSTORE PUSH1 0x20 DUP3 ADD SWAP1 POP SWAP3 SWAP2 POP POP JUMP JUMPDEST PUSH0 PUSH2 0xBF4 DUP3 PUSH2 0xA67 JUMP JUMPDEST PUSH2 0xBFE DUP2 DUP6 PUSH2 0xBDA JUMP JUMPDEST SWAP4 POP PUSH2 0xC0E DUP2 DUP6 PUSH1 0x20 DUP7 ADD PUSH2 0xA81 JUMP JUMPDEST PUSH2 0xC17 DUP2 PUSH2 0x86E JUMP JUMPDEST DUP5 ADD SWAP2 POP POP SWAP3 SWAP2 POP POP JUMP JUMPDEST PUSH0 PUSH1 0x60 DUP3 ADD SWAP1 POP DUP2 DUP2 SUB PUSH0 DUP4 ADD MSTORE PUSH2 0xC3A DUP2 DUP7 PUSH2 0xBEA JUMP JUMPDEST SWAP1 POP PUSH2 0xC49 PUSH1 0x20 DUP4 ADD DUP6 PUSH2 0xA19 JUMP JUMPDEST PUSH2 0xC56 PUSH1 0x40 DUP4 ADD DUP5 PUSH2 0xA31 JUMP JUMPDEST SWAP5 SWAP4 POP POP POP POP JUMP JUMPDEST PUSH2 0xC67 DUP2 PUSH2 0xA08 JUMP JUMPDEST DUP2 EQ PUSH2 0xC71 JUMPI PUSH0 DUP1 REVERT JUMPDEST POP JUMP JUMPDEST PUSH0 DUP2 CALLDATALOAD SWAP1 POP PUSH2 0xC82 DUP2 PUSH2 0xC5E JUMP JUMPDEST SWAP3 SWAP2 POP POP JUMP JUMPDEST PUSH0 DUP1 PUSH1 0x40 DUP4 DUP6 SUB SLT ISZERO PUSH2 0xC9E JUMPI PUSH2 0xC9D PUSH2 0x85E JUMP JUMPDEST JUMPDEST PUSH0 DUP4 ADD CALLDATALOAD PUSH8 0xFFFFFFFFFFFFFFFF DUP2 GT ISZERO PUSH2 0xCBB JUMPI PUSH2 0xCBA PUSH2 0x862 JUMP JUMPDEST JUMPDEST PUSH2 0xCC7 DUP6 DUP3 DUP7 ADD PUSH2 0x975 JUMP JUMPDEST SWAP3 POP POP PUSH1 0x20 PUSH2 0xCD8 DUP6 DUP3 DUP7 ADD PUSH2 0xC74 JUMP JUMPDEST SWAP2 POP POP SWAP3 POP SWAP3 SWAP1 POP JUMP JUMPDEST PUSH0 DUP2 MLOAD SWAP1 POP SWAP2 SWAP1 POP JUMP JUMPDEST PUSH0 DUP3 DUP3 MSTORE PUSH1 0x20 DUP3 ADD SWAP1 POP SWAP3 SWAP2 POP POP JUMP JUMPDEST PUSH0 DUP2 SWAP1 POP PUSH1 0x20 DUP3 ADD SWAP1 POP SWAP2 SWAP1 POP JUMP JUMPDEST PUSH0 PUSH1 0x60 DUP4 ADD PUSH0 DUP4 ADD MLOAD DUP5 DUP3 SUB PUSH0 DUP7 ADD MSTORE PUSH2 0xD25 DUP3 DUP3 PUSH2 0xAA9 JUMP JUMPDEST SWAP2 POP POP PUSH1 0x20 DUP4 ADD MLOAD PUSH2 0xD3A PUSH1 0x20 DUP7 ADD DUP3 PUSH2 0xAE1 JUMP JUMPDEST POP PUSH1 0x40 DUP4 ADD MLOAD PUSH2 0xD4D PUSH1 0x40 DUP7 ADD DUP3 PUSH2 0xAF0 JUMP JUMPDEST POP DUP1 SWAP2 POP POP SWAP3 SWAP2 POP POP JUMP JUMPDEST PUSH0 PUSH2 0xD63 DUP4 DUP4 PUSH2 0xD0B JUMP JUMPDEST SWAP1 POP SWAP3 SWAP2 POP POP JUMP JUMPDEST PUSH0 PUSH1 0x20 DUP3 ADD SWAP1 POP SWAP2 SWAP1 POP JUMP JUMPDEST PUSH0 PUSH2 0xD81 DUP3 PUSH2 0xCE2 JUMP JUMPDEST PUSH2 0xD8B DUP2 DUP6 PUSH2 0xCEC JUMP JUMPDEST SWAP4 POP DUP4 PUSH1 0x20 DUP3 MUL DUP6 ADD PUSH2 0xD9D DUP6 PUSH2 0xCFC JUMP JUMPDEST DUP1 PUSH0 JUMPDEST DUP6 DUP2 LT ISZERO PUSH2 0xDD8 JUMPI DUP5 DUP5 SUB DUP10 MSTORE DUP2 MLOAD PUSH2 0xDB9 DUP6 DUP3 PUSH2 0xD58 JUMP JUMPDEST SWAP5 POP PUSH2 0xDC4 DUP4 PUSH2 0xD6B JUMP JUMPDEST SWAP3 POP PUSH1 0x20 DUP11 ADD SWAP10 POP POP PUSH1 0x1 DUP2 ADD SWAP1 POP PUSH2 0xDA0 JUMP JUMPDEST POP DUP3 SWAP8 POP DUP8 SWAP6 POP POP POP POP POP POP SWAP3 SWAP2 POP POP JUMP JUMPDEST PUSH0 PUSH1 0x20 DUP3 ADD SWAP1 POP DUP2 DUP2 SUB PUSH0 DUP4 ADD MSTORE PUSH2 0xE02 DUP2 DUP5 PUSH2 0xD77 JUMP JUMPDEST SWAP1 POP SWAP3 SWAP2 POP POP JUMP JUMPDEST PUSH0 DUP2 SWAP1 POP SWAP3 SWAP2 POP POP JUMP JUMPDEST PUSH0 PUSH2 0xE1E DUP3 PUSH2 0xA67 JUMP JUMPDEST PUSH2 0xE28 DUP2 DUP6 PUSH2 0xE0A JUMP JUMPDEST SWAP4 POP PUSH2 0xE38 DUP2 DUP6 PUSH1 0x20 DUP7 ADD PUSH2 0xA81 JUMP JUMPDEST DUP1 DUP5 ADD SWAP2 POP POP SWAP3 SWAP2 POP POP JUMP JUMPDEST PUSH0 PUSH2 0xE4F DUP3 DUP5 PUSH2 0xE14 JUMP JUMPDEST SWAP2 POP DUP2 SWAP1 POP SWAP3 SWAP2 POP POP JUMP JUMPDEST PUSH32 0x46616C73652048617368206F7220446F63756D656E7420646F6573206E6F7420 PUSH0 DUP3 ADD MSTORE PUSH32 0x6578697374000000000000000000000000000000000000000000000000000000 PUSH1 0x20 DUP3 ADD MSTORE POP JUMP JUMPDEST PUSH0 PUSH2 0xEB4 PUSH1 0x25 DUP4 PUSH2 0xBDA JUMP JUMPDEST SWAP2 POP PUSH2 0xEBF DUP3 PUSH2 0xE5A JUMP JUMPDEST PUSH1 0x40 DUP3 ADD SWAP1 POP SWAP2 SWAP1 POP JUMP JUMPDEST PUSH0 PUSH1 0x20 DUP3 ADD SWAP1 POP DUP2 DUP2 SUB PUSH0 DUP4 ADD MSTORE PUSH2 0xEE1 DUP2 PUSH2 0xEA8 JUMP JUMPDEST SWAP1 POP SWAP2 SWAP1 POP JUMP JUMPDEST PUSH32 0x4E487B7100000000000000000000000000000000000000000000000000000000 PUSH0 MSTORE PUSH1 0x32 PUSH1 0x4 MSTORE PUSH1 0x24 PUSH0 REVERT JUMPDEST PUSH32 0x4E487B7100000000000000000000000000000000000000000000000000000000 PUSH0 MSTORE PUSH1 0x22 PUSH1 0x4 MSTORE PUSH1 0x24 PUSH0 REVERT JUMPDEST PUSH0 PUSH1 0x2 DUP3 DIV SWAP1 POP PUSH1 0x1 DUP3 AND DUP1 PUSH2 0xF59 JUMPI PUSH1 0x7F DUP3 AND SWAP2 POP JUMPDEST PUSH1 0x20 DUP3 LT DUP2 SUB PUSH2 0xF6C JUMPI PUSH2 0xF6B PUSH2 0xF15 JUMP JUMPDEST JUMPDEST POP SWAP2 SWAP1 POP JUMP JUMPDEST PUSH32 0x46696C6520616C72656164792073746F72656400000000000000000000000000 PUSH0 DUP3 ADD MSTORE POP JUMP JUMPDEST PUSH0 PUSH2 0xFA6 PUSH1 0x13 DUP4 PUSH2 0xBDA JUMP JUMPDEST SWAP2 POP PUSH2 0xFB1 DUP3 PUSH2 0xF72 JUMP JUMPDEST PUSH1 0x20 DUP3 ADD SWAP1 POP SWAP2 SWAP1 POP JUMP JUMPDEST PUSH0 PUSH1 0x20 DUP3 ADD SWAP1 POP DUP2 DUP2 SUB PUSH0 DUP4 ADD MSTORE PUSH2 0xFD3 DUP2 PUSH2 0xF9A JUMP JUMPDEST SWAP1 POP SWAP2 SWAP1 POP JUMP JUMPDEST PUSH0 DUP2 SWAP1 POP DUP2 PUSH0 MSTORE PUSH1 0x20 PUSH0 KECCAK256 SWAP1 POP SWAP2 SWAP1 POP JUMP JUMPDEST PUSH0 PUSH1 0x20 PUSH1 0x1F DUP4 ADD DIV SWAP1 POP SWAP2 SWAP1 POP JUMP JUMPDEST PUSH0 DUP3 DUP3 SHL SWAP1 POP SWAP3 SWAP2 POP POP JUMP JUMPDEST PUSH0 PUSH1 0x8 DUP4 MUL PUSH2 0x1036 PUSH32 0xFFFFFFFFFFFFFFFFFFFFFFFFFFFFFFFFFFFFFFFFFFFFFFFFFFFFFFFFFFFFFFFF DUP3 PUSH2 0xFFB JUMP JUMPDEST PUSH2 0x1040 DUP7 DUP4 PUSH2 0xFFB JUMP JUMPDEST SWAP6 POP DUP1 NOT DUP5 AND SWAP4 POP DUP1 DUP7 AND DUP5 OR SWAP3 POP POP POP SWAP4 SWAP3 POP POP POP JUMP JUMPDEST PUSH0 DUP2 SWAP1 POP SWAP2 SWAP1 POP JUMP JUMPDEST PUSH0 PUSH2 0x107B PUSH2 0x1076 PUSH2 0x1071 DUP5 PUSH2 0xA28 JUMP JUMPDEST PUSH2 0x1058 JUMP JUMPDEST PUSH2 0xA28 JUMP JUMPDEST SWAP1 POP SWAP2 SWAP1 POP JUMP JUMPDEST PUSH0 DUP2 SWAP1 POP SWAP2 SWAP1 POP JUMP JUMPDEST PUSH2 0x1094 DUP4 PUSH2 0x1061 JUMP JUMPDEST PUSH2 0x10A8 PUSH2 0x10A0 DUP3 PUSH2 0x1082 JUMP JUMPDEST DUP5 DUP5 SLOAD PUSH2 0x1007 JUMP JUMPDEST DUP3 SSTORE POP POP POP POP JUMP JUMPDEST PUSH0 SWAP1 JUMP JUMPDEST PUSH2 0x10BC PUSH2 0x10B0 JUMP JUMPDEST PUSH2 0x10C7 DUP2 DUP5 DUP5 PUSH2 0x108B JUMP JUMPDEST POP POP POP JUMP JUMPDEST JUMPDEST DUP2 DUP2 LT ISZERO PUSH2 0x10EA JUMPI PUSH2 0x10DF PUSH0 DUP3 PUSH2 0x10B4 JUMP JUMPDEST PUSH1 0x1 DUP2 ADD SWAP1 POP PUSH2 0x10CD JUMP JUMPDEST POP POP JUMP JUMPDEST PUSH1 0x1F DUP3 GT ISZERO PUSH2 0x112F JUMPI PUSH2 0x1100 DUP2 PUSH2 0xFDA JUMP JUMPDEST PUSH2 0x1109 DUP5 PUSH2 0xFEC JUMP JUMPDEST DUP2 ADD PUSH1 0x20 DUP6 LT ISZERO PUSH2 0x1118 JUMPI DUP2 SWAP1 POP JUMPDEST PUSH2 0x112C PUSH2 0x1124 DUP6 PUSH2 0xFEC JUMP JUMPDEST DUP4 ADD DUP3 PUSH2 0x10CC JUMP JUMPDEST POP POP JUMPDEST POP POP POP JUMP JUMPDEST PUSH0 DUP3 DUP3 SHR SWAP1 POP SWAP3 SWAP2 POP POP JUMP JUMPDEST PUSH0 PUSH2 0x114F PUSH0 NOT DUP5 PUSH1 0x8 MUL PUSH2 0x1134 JUMP JUMPDEST NOT DUP1 DUP4 AND SWAP2 POP POP SWAP3 SWAP2 POP POP JUMP JUMPDEST PUSH0 PUSH2 0x1167 DUP4 DUP4 PUSH2 0x1140 JUMP JUMPDEST SWAP2 POP DUP3 PUSH1 0x2 MUL DUP3 OR SWAP1 POP SWAP3 SWAP2 POP POP JUMP JUMPDEST PUSH2 0x1180 DUP3 PUSH2 0xA67 JUMP JUMPDEST PUSH8 0xFFFFFFFFFFFFFFFF DUP2 GT ISZERO PUSH2 0x1199 JUMPI PUSH2 0x1198 PUSH2 0x87E JUMP JUMPDEST JUMPDEST PUSH2 0x11A3 DUP3 SLOAD PUSH2 0xF42 JUMP JUMPDEST PUSH2 0x11AE DUP3 DUP3 DUP6 PUSH2 0x10EE JUMP JUMPDEST PUSH0 PUSH1 0x20 SWAP1 POP PUSH1 0x1F DUP4 GT PUSH1 0x1 DUP2 EQ PUSH2 0x11DF JUMPI PUSH0 DUP5 ISZERO PUSH2 0x11CD JUMPI DUP3 DUP8 ADD MLOAD SWAP1 POP JUMPDEST PUSH2 0x11D7 DUP6 DUP3 PUSH2 0x115C JUMP JUMPDEST DUP7 SSTORE POP PUSH2 0x123E JUMP JUMPDEST PUSH1 0x1F NOT DUP5 AND PUSH2 0x11ED DUP7 PUSH2 0xFDA JUMP JUMPDEST PUSH0 JUMPDEST DUP3 DUP2 LT ISZERO PUSH2 0x1214 JUMPI DUP5 DUP10 ADD MLOAD DUP3 SSTORE PUSH1 0x1 DUP3 ADD SWAP2 POP PUSH1 0x20 DUP6 ADD SWAP5 POP PUSH1 0x20 DUP2 ADD SWAP1 POP PUSH2 0x11EF JUMP JUMPDEST DUP7 DUP4 LT ISZERO PUSH2 0x1231 JUMPI DUP5 DUP10 ADD MLOAD PUSH2 0x122D PUSH1 0x1F DUP10 AND DUP3 PUSH2 0x1140 JUMP JUMPDEST DUP4 SSTORE POP JUMPDEST PUSH1 0x1 PUSH1 0x2 DUP9 MUL ADD DUP9 SSTORE POP POP POP JUMPDEST POP POP POP POP POP POP JUMP JUMPDEST PUSH32 0x4E487B7100000000000000000000000000000000000000000000000000000000 PUSH0 MSTORE PUSH1 0x11 PUSH1 0x4 MSTORE PUSH1 0x24 PUSH0 REVERT JUMPDEST PUSH0 PUSH2 0x127D DUP3 PUSH2 0xA28 JUMP JUMPDEST SWAP2 POP PUSH2 0x1288 DUP4 PUSH2 0xA28 JUMP JUMPDEST SWAP3 POP DUP3 DUP3 SUB SWAP1 POP DUP2 DUP2 GT ISZERO PUSH2 0x12A0 JUMPI PUSH2 0x129F PUSH2 0x1246 JUMP JUMPDEST JUMPDEST SWAP3 SWAP2 POP POP JUMP INVALID LOG2 PUSH5 0x6970667358 0x22 SLT KECCAK256 DELEGATECALL 0x2A TIMESTAMP MSTORE 0xE0 CALL 0x28 PUSH27 0xD3D23F7FDF3A3A377B815C11CA23629F2B97D7336057B3B964736F PUSH13 0x63430008160033000000000000 "
		},
		"gasEstimates": {
			"creation": {
				"codeDepositCost": "965600",
				"executionCost": "999",
				"totalCost": "966599"
			},
			"external": {
				"Store(string,address)": "infinite",
				"documents(uint256)": "infinite",
				"getCount()": "2462",
				"getDocumentData(string)": "infinite",
				"getDocumentbyHash(string)": "infinite",
				"getDocuments()": "infinite"
			}
		},
		"methodIdentifiers": {
			"Store(string,address)": "ce61d6dc",
			"documents(uint256)": "c2ed2b05",
			"getCount()": "a87d942c",
			"getDocumentData(string)": "2f66fd8d",
			"getDocumentbyHash(string)": "7cd55d7d",
			"getDocuments()": "ef2d8700"
		}
	},
	"abi": [
		{
			"anonymous": false,
			"inputs": [
				{
					"indexed": false,
					"internalType": "string",
					"name": "ipfsHash",
					"type": "string"
				},
				{
					"indexed": false,
					"internalType": "address",
					"name": "owner",
					"type": "address"
				},
				{
					"indexed": false,
					"internalType": "uint256",
					"name": "storeDate",
					"type": "uint256"
				}
			],
			"name": "StoreDocument",
			"type": "event"
		},
		{
			"inputs": [
				{
					"internalType": "string",
					"name": "_documentHash",
					"type": "string"
				},
				{
					"internalType": "address",
					"name": "_owner",
					"type": "address"
				}
			],
			"name": "Store",
			"outputs": [],
			"stateMutability": "nonpayable",
			"type": "function"
		},
		{
			"inputs": [
				{
					"internalType": "uint256",
					"name": "",
					"type": "uint256"
				}
			],
			"name": "documents",
			"outputs": [
				{
					"internalType": "string",
					"name": "ipfsHash",
					"type": "string"
				},
				{
					"internalType": "address",
					"name": "owner",
					"type": "address"
				},
				{
					"internalType": "uint256",
					"name": "storeDate",
					"type": "uint256"
				}
			],
			"stateMutability": "view",
			"type": "function"
		},
		{
			"inputs": [],
			"name": "getCount",
			"outputs": [
				{
					"internalType": "uint256",
					"name": "",
					"type": "uint256"
				}
			],
			"stateMutability": "view",
			"type": "function"
		},
		{
			"inputs": [
				{
					"internalType": "string",
					"name": "_documentHash",
					"type": "string"
				}
			],
			"name": "getDocumentData",
			"outputs": [
				{
					"internalType": "address",
					"name": "_owner",
					"type": "address"
				},
				{
					"internalType": "uint256",
					"name": "_storeDate",
					"type": "uint256"
				}
			],
			"stateMutability": "view",
			"type": "function"
		},
		{
			"inputs": [
				{
					"internalType": "string",
					"name": "_documentHash",
					"type": "string"
				}
			],
			"name": "getDocumentbyHash",
			"outputs": [
				{
					"components": [
						{
							"internalType": "string",
							"name": "ipfsHash",
							"type": "string"
						},
						{
							"internalType": "address",
							"name": "owner",
							"type": "address"
						},
						{
							"internalType": "uint256",
							"name": "storeDate",
							"type": "uint256"
						}
					],
					"internalType": "struct NotarStore.Document",
					"name": "",
					"type": "tuple"
				}
			],
			"stateMutability": "view",
			"type": "function"
		},
		{
			"inputs": [],
			"name": "getDocuments",
			"outputs": [
				{
					"components": [
						{
							"internalType": "string",
							"name": "ipfsHash",
							"type": "string"
						},
						{
							"internalType": "address",
							"name": "owner",
							"type": "address"
						},
						{
							"internalType": "uint256",
							"name": "storeDate",
							"type": "uint256"
						}
					],
					"internalType": "struct NotarStore.Document[]",
					"name": "",
					"type": "tuple[]"
				}
			],
			"stateMutability": "view",
			"type": "function"
		}
	]
}